:100000000C94AA010C94DB010C94DB010C94DB0131
:100010000C94DB010C94DB010C94DB010C94DB01F0
:100020000C94DB010C949D0B0C949D0B0C949D0B7C
:100030000C94190C0C94DB010C94DB010C94DB0187
:100040000C94DB010C94DB010C94DB010C94DB01C0
:100050000C94DB010C94DB010C94DB010C94F30A8F
:100060000C94DB010C94670B0C943D0B0C94DB019E
:100070000C94DB010C94DB010C94DB010C94DB0190
:100080000C94DB010C94DB010C94DB010C94DB0180
:100090000C94DB010C94DB010C94DB010C94DB0170
:1000A0000C94DB010C94DB010C94DB010C94DB0160
:1000B0000C94DB010C94DB010C94DB010C94DB0150
:1000C0000C94DB010C94DB010C94DB010C94DB0140
:1000D0000C94DB010C94DB010C94DB010C94DB0130
:1000E0000C94DB010C946A070C9443030C942A07CC
:1000F0000C9432070C94B2070C944A040C943B0203
:100100000C943A070C94F9030C9476070C940D02A6
:100110000C945A070C9416020C945E070C94AA07D0
:100120000C94E6070C94D7040C9492070C94FB01F2
:100130000C94AC030C9401020C949E070C943202B4
:100140000C94D6070C9462040C9486070C94B607A2
:100150000C9422070C94BE070C947D0C0C947E0723
:100160000C9424020C9446070C9409020C94D207B8
:100170000C9410020C94E2070C942E020C9474035D
:100180000C944E070C9466070C9466030C943E077F
:100190000C94F8040C947A070C9405020C94520702
:1001A0000C94BF040C94A6070C9463040C948A0767
:1001B0000C9420020C9436020C941E070C94DA075F
:1001C0000C94CA070C941A020C94A2070C942607EC
:1001D0000C94BA070C94C6070C942E070C94520387
:1001E0000C9428020C9440020C94CE070C94DE0769
:1001F0000C9482070C9416030C94AE070C94C2075F
:100200000C9472070C949A070C9436070C948E0782
:100210000C948B150C9462070C943C020C944A07C6
:100220000C946E070C9456070C9496070C94420796
:1002300000002100240027002A002D003000330098
:1002400001010000040107010A0100000A0B020974
:100250000C0D0E0807030401000000000000000060
:10026000000000000000000000000000000000008E
:10027000000000000000121110000000000000004B
:10028000000000000000000000000000000000006E
:10029000000020002300260029002C002F0032003F
:1002A00000010000030106010901000022002500F1
:1002B00028002B002E00310034000201000005014F
:1002C00008010B01050505050705080808080202D5
:1002D00002020A0A080804040404010101010101E0
:1002E00001010303030303030303040707070C0CC3
:1002F0000C0C0C0C0C0C020202020606060606068A
:1003000006060B0B0B0B0B0B0B0B0102102020082E
:100310000810204010204080020102010804020160
:1003200001020408102040808040201008040201CF
:100330008004020180402010080402010804020128
:1003400001020408102040800102040810204080AF
:100350007D0C8B1511241FBECFEFD1E2DEBFCDBFC8
:1003600000E00CBF27E0A4E2B6E001C01D92A33874
:10037000B207E1F716E0A0E0B2E0E4E0F1E300E06C
:100380000BBF02C007900D92A432B107D9F711E05C
:10039000C9EAD1E000E006C021970109802FFE01E3
:1003A0000E943516C83AD10780E00807A9F70E94D5
:1003B000460D0C9470180C9400008150823108F0A6
:1003C0005AC0E82FF0E08827E751FE4F8F4F0C947A
:1003D000351609020D02FB01010205023B02100263
:1003E00016021A022002240228022E0232023B02C6
:1003F00036023C024002809180008F77809380001B
:100400000895809180008F7DF9CF80918000877F53
:10041000F5CF84B58F7784BD089584B58F7DFBCFEC
:100420008091B0008F778093B00008958091B000E4
:100430008F7DF9CF809190008F7780939000089501
:10044000809190008F7DF9CF80919000877FF5CFCC
:100450008091A0008F778093A00008958091A000E4
:100460008F7DF9CF8091A000877FF5CF809120010B
:100470008F77809320010895809120018F7DF9CF9F
:1004800080912001877FF5CFCF93DF93282F30E035
:10049000F901E65BFD4F8491F901E65FFC4FD491D1
:1004A000F901EC53FD4FC491CC23A1F081110E94BE
:1004B000DD01EC2FF0E0EE0FFF1FE057FD4FA5919F
:1004C000B491EC91ED2381E090E009F480E0DF91BC
:1004D000CF91089580E090E0FACF1F93CF93DF9300
:1004E000282F30E0F901E65BFD4F8491F901E65FCA
:1004F000FC4FD491F901EC53FD4FC491CC23A9F0EA
:10050000162F81110E94DD01EC2FF0E0EE0FFF1F8E
:10051000E655FD4FA591B4918FB7F894EC91111168
:1005200008C0D095DE23DC938FBFDF91CF911F9160
:100530000895DE2BF8CFCF93DF9390E0FC01E65FC8
:10054000FC4F24918C539D4FFC0184918823C9F06A
:1005500090E0880F991FFC01E05DFD4FA591B491DB
:10056000FC01E655FD4FC591D49161110DC09FB7B7
:10057000F8948C91209582238C938881282328835A
:100580009FBFDF91CF910895623051F49FB7F894E7
:100590003C91822F809583238C93E8812E2BEFCF83
:1005A0008FB7F894EC912E2B2C938FBFEACF3FB7E7
:1005B000F8948091880690918906A0918A06B0915E
:1005C0008B0626B5A89B05C02F3F19F00196A11DEB
:1005D000B11D3FBFBA2FA92F982F8827BC01CD018D
:1005E000620F711D811D911D42E0660F771F881FEC
:1005F000991F4A95D1F708952FB7F8946091840612
:100600007091850680918606909187062FBF089588
:10061000DB0114964D915C9115976D917C91DC01F5
:10062000ED91FC910280F381E02D1994AF92BF927D
:10063000CF92DF92EF92FF920F931F93CF93DF93AE
:100640006C017B018B01040F151FEB015E01AE18DD
:10065000BF08C017D10759F06991D601ED91FC91FF
:100660000190F081E02DC6011995892B79F7C5011C
:10067000DF91CF911F910F91FF90EF90DF90CF907E
:10068000BF90AF900895FC01538D448D252F30E02D
:10069000842F90E0821B930B541710F0CF9608958F
:1006A00001970895FC01918D828D981761F0A28DBC
:1006B000AE0FBF2FB11D5D968C91928D9F5F9F7382
:1006C000928F90E008958FEF9FEF0895FC01918D38
:1006D000828D981731F0828DE80FF11D858D90E0A5
:1006E00008958FEF9FEF0895FC01918D228D892F42
:1006F00090E0805C9F4F821B91098F73992708952A
:100700008FE896E00E94740321E0892B09F420E031
:10071000822F0895FC01A48DA80FB92FB11DA35AF3
:10072000BF4F2C91848D90E001968F739927848F11
:10073000A689B7892C93A089B1898C918370806434
:100740008C93938D848D981306C00288F389E02DD5
:1007500080818F7D80830895EF92FF920F931F9386
:10076000CF93DF93EC0181E0888F9B8D8C8D981364
:100770001AC0E889F989808185FF15C09FB7F89470
:10078000EE89FF896083E889F989808183708064BC
:1007900080839FBF81E090E0DF91CF911F910F9107
:1007A000FF90EF900895F62E0B8D10E00F5F1F4F16
:1007B0000F731127E02E8C8D8E110CC00FB607FC25
:1007C000FACFE889F989808185FFF5CFCE010E94B3
:1007D0008A03F1CFEB8DEC0FFD2FF11DE35AFF4F94
:1007E000F0829FB7F8940B8FEA89FB898081806241
:1007F000CFCFCF93DF93EC01888D8823B9F0AA89FE
:10080000BB89E889F9898C9185FD03C0808186FDCB
:100810000DC00FB607FCF7CF8C9185FFF2CF80811A
:1008200085FFEDCFCE010E948A03E9CFDF91CF9102
:10083000089580E090E0892B29F00E9480038111C7
:100840000E94000080E090E0892B49F080E090E079
:10085000892B29F00E94000081110E94000080E095
:1008600090E0892B49F080E090E0892B29F00E94EC
:10087000000081110E94000080E090E0892B49F087
:1008800080E090E0892B29F00E94000081110C94F7
:100890000000089520916F063091700628173907DF
:1008A00071F490916D0680916E06981741F0E09179
:1008B0006D06F0E0E35DF94F808190E008958FEFE1
:1008C0009FEF08950895EF92FF920F931F93CF9398
:1008D000DF93DC015C96ED90FC905D97E114F104F0
:1008E00079F481E090E013969C938E93129790E0B8
:1008F00080E0DF91CF911F910F91FF90EF900895CD
:100900005196ED91FC91529750968C915097982F5B
:1009100090950FB75E962C915E97122F127021FD65
:100920006095F8942081112319F1282B2083E70189
:100930002197F1F728E0462F50E0308160FF1AC080
:10094000382B3083E7012197F1F7BA017595679548
:10095000215089F7112381F08081892380830FBF83
:100960005C968D919C910197F1F781E090E0C1CF69
:100970002923DCCF3923E5CF9081892BEFCF20913C
:100980006F06309170062817390771F480916E0652
:1009900020916D0690E0805C9F4F821B910960E47E
:1009A00070E00E94FF15089590E080E00895209186
:1009B0006F063091700628173907B9F490916D06CB
:1009C00080916E06981789F0E0916D06F0E0E35D86
:1009D000F94F808120916D0630E02F5F3F4F2F73DC
:1009E000332720936D0690E008958FEF9FEF0895D1
:1009F00090E080E008950F931F930E94FC02009105
:100A0000790610917A0620917B0630917C0660175A
:100A100071078207930740F41092790610927A06C4
:100A200010927B0610927C060E94FC0200917106D7
:100A30001091720620917306309174066017710749
:100A40008207930740F4109271061092720610927A
:100A50007306109274061F910F910895FF920F93E1
:100A60001F93CF93DF9308E012E0D0E0C0E0F801DD
:100A7000F1908F01CE010E94E915F81621F06F2D3B
:100A8000CE010E94F1152196CA30D10581F788E088
:100A900092E0DF91CF911F910F91FF900895FB019C
:100AA00001900020E9F73197AF01461B570BDC019D
:100AB000ED91FC910280F381E02D19948F929F9229
:100AC000AF92BF92EF92FF920F931F93CF93DF935A
:100AD000CDB7DEB7A1970FB6F894DEBF0FBECDBF7E
:100AE0007C01FA01CB0119A2223008F42AE08E0120
:100AF0000F5D1F4F822E912CB12CA12CBF01A5019F
:100B000094010E941316F901CA016A300CF5605D68
:100B1000D8016E938D01232B242B252B79F790E0A0
:100B200080E0109721F0BD01C7010E944F05A196FA
:100B30000FB6F894DEBF0FBECDBFDF91CF911F91EE
:100B40000F91FF90EF90BF90AF909F908F9008957E
:100B5000695CDECFCF93DF93AB01BC012AE08FE865
:100B600096E00E945E05EC016CE372E08FE896E08F
:100B70000E944F058C0F9D1FDF91CF910895CF9359
:100B8000DF93BC018FE896E00E944F05EC016CE317
:100B900072E08FE896E00E944F058C0F9D1FDF9159
:100BA000CF910895CF92DF92EF92FF92CF93DF9390
:100BB0006C01990FEE08FF08F7FE23C06DE28FE885
:100BC00096E00E94AC03EC0144275527BA014C196A
:100BD0005D096E097F092AE08FE896E00E945E05B4
:100BE000C80FD91F6CE372E08FE896E00E944F05B2
:100BF0008C0F9D1FDF91CF91FF90EF90DF90CF90F2
:100C000008952AE0B701A6018FE896E00E945E05EC
:100C1000EC01E8CF0C944F050F931F93809132079E
:100C200090913307DC01ED91FC910084F185E02D7A
:100C3000199503970CF4B6C0809132079091330751
:100C4000DC01ED91FC910284F385E02D19958093F0
:100C500052070E94FC0260935307709354078093DD
:100C600055079093560780915207833201F1809186
:100C7000320790913307DC01ED91FC910284F385FA
:100C8000E02D1995809352070E94FC0200915307B2
:100C9000109154072091550730915607601B710B36
:100CA000820B930B6536710581059105E0F2809109
:100CB0005207833209F076C0809132079091330752
:100CC000DC01ED91FC910284F385E02D1995809370
:100CD00059070E94FC026093530770935407809356
:100CE00055079093560781E080935707809132070C
:100CF00090913307DC01ED91FC910084F185E02DAA
:100D000019952091590728171906B1F0ACF00E94E7
:100D1000FC02009153071091540720915507309120
:100D20005607601B710B820B930B653671058105AD
:100D30009105E0F21092570780915707882391F1AF
:100D40008091320790913307DC01ED91FC91028490
:100D5000F385E02D199580935807803561F084352F
:100D600021F18093300780915907809331071F91BB
:100D70000F910C94000080912C0790912D07909377
:100D80002F0780932E078091320790913307DC0163
:100D9000ED91FC910284F385E02D199590932D0738
:100DA00080932C071F910F910895809132079091A5
:100DB0003307DC01ED91FC910284F385E02D199558
:100DC000FC01FF27E333F10568F78827E551F94F68
:100DD0008F4F0C9435161E07220726072A072E0769
:100DE000320736073A073E07420746074A074E07CB
:100DF000520756075A075E07620766076A076E07BB
:100E0000720776077A077E07820786078A078E07AA
:100E1000920796079A079E07A207A607AA07AE079A
:100E2000B207B607BA07BE07C207C607CA07CE078A
:100E3000D207D607DA07DE07E207E60781E08093EC
:100E40008E06B0CF81E080938D06ACCF81E0809399
:100E50008C06A8CF1F910F910C9400001F910F9149
:100E60000C9400001F910F910C9400001F910F91A2
:100E70000C9400001F910F910C9400001F910F9192
:100E80000C9400001F910F910C9400001F910F9182
:100E90000C9400001F910F910C9400001F910F9172
:100EA0000C9400001F910F910C9400001F910F9162
:100EB0000C9400001F910F910C9400001F910F9152
:100EC0000C9400001F910F910C9400001F910F9142
:100ED0000C9400001F910F910C9400001F910F9132
:100EE0000C9400001F910F910C9400001F910F9122
:100EF0000C9400001F910F910C9400001F910F9112
:100F00000C9400001F910F910C9400001F910F9101
:100F10000C9400001F910F910C9400001F910F91F1
:100F20000C9400001F910F910C9400001F910F91E1
:100F30000C9400001F910F910C9400001F910F91D1
:100F40000C9400001F910F910C9400001F910F91C1
:100F50000C9400001F910F910C9400001F910F91B1
:100F60000C9400001F910F910C9400001F910F91A1
:100F70000C9400001F910F910C9400001F910F9191
:100F80000C9400001F910F910C9400001F910F9181
:100F90000C9400001F910F910C9400001F910F9171
:100FA0000C9400001F910F910C9400001F910F9161
:100FB0000C9400001F910F910C9400001F910F9151
:100FC0000C9400001F910F910C9400001F910F9141
:100FD0000C940000FC0180819181009711F00C9429
:100FE000ED160895EF92FF920F931F93CF93DF9327
:100FF000EC017B018A0188819981009729F02A817F
:101000003B812417350788F4B8016F5F7F4F0E943A
:101010007617009791F0998388831B830A832C812C
:101020003D81232B11F4FC0110821D830C83B70139
:10103000888199810E9469180CC0888199810097E4
:1010400011F00E94ED16198218821D821C821B82EB
:101050001A82CE01DF91CF911F910F91FF90EF90F7
:101060000895EF92FF920F931F93CF93DF93CDB725
:10107000DEB7A1970FB6F894DEBF0FBECDBF8C01CF
:10108000CB01BA01F80111821082138212821582FB
:1010900014822AE0AE014F5F5F4F7A010E94B715BC
:1010A000F70101900020E9F73197AF014E195F0970
:1010B000B701C8010E94F207A1960FB6F894DEBFEF
:1010C0000FBECDBFDF91CF911F910F91FF90EF9099
:1010D0000895CF93DF93EC01FB018617970749F042
:1010E000608171816115710541F0448155810E94D3
:1010F000F207CE01DF91CF91089588819981009701
:1011000011F00E94ED16198218821D821C821B822A
:101110001A82EFCFCF92DF92EF92FF92CF93DF93BD
:101120006A017B01BC0184E397E00E946908CCE27C
:10113000D7E0CE86DF86E88AF98A64E377E08E819D
:101140009F810E9408036FE372E08E819F810E945D
:101150000A064E855F85688979892AE08E819F819C
:101160000E945E0561E472E08E819F81DF91CF91E4
:10117000FF90EF90DF90CF900C940A06CF93DF930F
:10118000EB01BC0184E397E00E946908BE018EE395
:1011900097E00E9469088091420790914307C091AF
:1011A0003207D0913307892BC9F065E472E0809152
:1011B0003E0790913F070E946018892B79F464E301
:1011C00077E0CE010E94080361E472E0809132076B
:1011D00090913307DF91CF910C940A0664E377E096
:1011E000CE010E94080369E472E080913207909179
:1011F00033070E940A066EE377E0809132079091F0
:1012000033070E9408036AE472E0809132079091EC
:1012100033070E940A06D8CFFC0111821082138284
:10122000128215821482FB0101900020E9F73197A8
:10123000AF01461B570B0C94F207CF93DF9300D0FE
:1012400000D0CDB7DEB760E08DE20E946D0281E094
:1012500080937D066CE472E0CE0101960E940C0939
:1012600046E050E060E070E0CE0101960E948A08FE
:10127000CE0101960E94EA0763E572E0CE01019675
:101280000E940C0946E050E060E070E0CE0101965B
:101290000E948A08CE0101960E94EA0761E088E078
:1012A0000E946D0226960FB6F894DEBF0FBECDBF2A
:1012B000DF91CF910895CF93DF93CDB7DEB72C9711
:1012C0000FB6F894DEBF0FBECDBF409129065091F6
:1012D0002A0660912B0670912C06CE0107960E947B
:1012E00031086AE572E0CE0101960E940C09BE0148
:1012F000695F7F4FCE0101960E94BE08CE01019624
:101300000E94EA07CE0107960E94EA076091000258
:1013100070910102809102029091030228EE33E065
:1013200040E050E00E941316BA01A901CE010796D1
:101330000E94310861E672E0CE0101960E940C091C
:10134000BE01695F7F4FCE0101960E94BE08CE01AB
:1013500001960E94EA07CE0107960E94EA07409193
:1013600008025091090260910A0270910B02CE01AD
:1013700007960E94310868E672E0CE0101960E944D
:101380000C09BE01695F7F4FCE0101960E94BE0825
:10139000CE0101960E94EA07CE0107960E94EA0755
:1013A0002C960FB6F894DEBF0FBECDBFDF91CF9164
:1013B0000895CF93DF9300D000D0CDB7DEB7109261
:1013C0007D0660E088E00E946D0261E08DE20E948F
:1013D0006D026CE472E0CE0101960E940C0943E0BC
:1013E00050E060E070E0CE0101960E948A08CE01D4
:1013F00001960E94EA0763E572E0CE0101960E9421
:101400000C0943E050E060E070E0CE0101960E94DC
:101410008A08CE0101960E94EA07809129069091E0
:101420002A06A0912B06B0912C060196A11DB11D94
:101430008093290690932A06A0932B06B0932C063E
:101440000E945B0926960FB6F894DEBF0FBECDBF93
:10145000DF91CF910895E8E0F2E0108211821282CC
:1014600013828091000290910102A0910202B0913A
:10147000030286839783A087B1870E942E050C9470
:101480005B09CF93DF93C8E0D2E088819981AA817C
:10149000BB814091290650912A0660912B067091DC
:1014A0002C06840F951FA61FB71F4091250650914B
:1014B00026066091270670912806841B950BA60BC3
:1014C000B70B88839983AA83BB8380910002909194
:1014D0000102A0910202B09103028E839F83A8872C
:1014E000B9870E942E058091290690912A06A09125
:1014F0002B06B0912C068093250690932606A09388
:101500002706B09328068FE692E00E94BF0565E8A3
:1015100072E08FE896E00E940A068C819D810E940D
:10152000D20563E972E08FE896E00E940A066881BE
:1015300079818A819B810E94AA0560EB72E08FE825
:1015400096E00E940A066E817F81888599850E94B7
:10155000AA05DF91CF910C945B09CF93DF9300D064
:1015600000D0CDB7DEB78091070262EC72E088232D
:10157000C9F0CE0101960E940C094AE050E060E0FB
:1015800070E0CE0101960E948A08CE0101960E9469
:10159000EA0726960FB6F894DEBF0FBECDBFDF91E7
:1015A000CF910895CE0101960E940C0949E050E0C8
:1015B00060E070E0E6CF8AEC92E00E94BF051092F6
:1015C0007D0660E088E00E946D020C94AD0A85EF14
:1015D00092E00E94BF0510927D0660E088E00E94C4
:1015E0006D020C94AD0A1F920F920FB60F92112448
:1015F0002F933F938F939F93AF93BF9380918406D4
:1016000090918506A0918606B09187063091830659
:1016100023E0230F2D3758F50196A11DB11D20930E
:1016200083068093840690938506A0938606B093E4
:1016300087068091880690918906A0918A06B091CC
:101640008B060196A11DB11D809388069093890693
:10165000A0938A06B0938B06BF91AF919F918F9113
:101660003F912F910F900FBE0F901F90189526E875
:10167000230F0296A11DB11DD2CF1F920F920FB65C
:101680000F9211240BB60F922F933F934F935F93BA
:101690006F937F938F939F93AF93BF93EF93FF933A
:1016A0008FE896E00E948A03FF91EF91BF91AF917E
:1016B0009F918F917F916F915F914F913F912F916A
:1016C0000F900BBE0F900FBE0F901F9018951F929A
:1016D0000F920FB60F9211240BB60F922F938F9388
:1016E0009F93EF93FF93E0919F06F091A006808176
:1016F000E091A506F091A60682FD1DC09081809123
:10170000A8068F5F8F732091A906821741F0E091A0
:10171000A806F0E0E157F94F958F8093A806FF9156
:10172000EF919F918F912F910F900BBE0F900FBE55
:101730000F901F9018958081F2CF1F920F920FB6D5
:101740000F9211240BB60F922F933F934F935F93F9
:101750006F937F938F939F93AF93BF93EF93FF9379
:10176000E0916F06F0917006309749F0A685B78535
:101770008585968D91FF16C09C918923B1F4FF91C8
:10178000EF91BF91AF919F918F917F916F915F91F9
:101790004F913F912F910F900BBE0F900FBE0F9066
:1017A0001F9018959C91892351F7A389B4899C9126
:1017B0008589809589238C93868997890197F1F78C
:1017C000608D718DA685B785558538E020E0CB0109
:1017D0000197F1F7822F90E095958795282F4C91EE
:1017E000452309F02068315091F7868D81FD2095C1
:1017F00080916E0690E001968F73992730916D0667
:10180000381799F0A0916E06B0E0A35DB94F2C9304
:1018100080936E06828D938D0197F1F7A389B48929
:101820008C919589892B8C93AACF868D8160868F28
:10183000F1CF1F920F920FB60F9211240BB60F9299
:101840002F933F934F935F936F937F938F939F93C8
:10185000AF93BF93EF93FF930FB6F894A895809141
:101860006000886180936000109260000FBEE8E025
:10187000F2E080819181A281B3814091290650914B
:101880002A0660912B0670912C06840F951FA61FC7
:10189000B71F40912506509126066091270670914A
:1018A0002806841B950BA60BB70B80839183A2831C
:1018B000B3838091000290910102A0910202B09145
:1018C000030286839783A087B1870E942E0588E054
:1018D00080936000FF91EF91BF91AF919F918F91A5
:1018E0007F916F915F914F913F912F910F900BBE20
:1018F0000F900FBE0F901F901895109292061092A5
:10190000910688EE93E0A0E0B0E080939306909378
:101910009406A0939506B09396062CE132E030939E
:10192000900620938F0625EC30E030939C062093A0
:101930009B0624EC30E030939E0620939D0620EC1D
:1019400030E03093A00620939F0621EC30E03093E6
:10195000A2062093A10622EC30E03093A406209347
:10196000A30626EC30E03093A6062093A50610923D
:10197000A8061092A9061092AA061092AB06109221
:101980006307109262078093640790936507A093A2
:101990006607B09367078EE292E0909361078093A9
:1019A00060071092770710927607109279071092CD
:1019B000780710927B0710927A0710927D07109299
:1019C0007C0760917E076E7F6D7F60937E076695D2
:1019D000617081E068278CE00E946D0261E08CE01C
:1019E0000E949B02E6E1F3E0E491E0937007E0EDF2
:1019F000F2E0E491F0E0EE0FFF1FE655FD4F859118
:101A00009491909372078093710760E08BE00E943D
:101A10009B0280917E0781FD04C061E08BE00E9403
:101A20006D028BE080936C07E5E1F3E0E491E093D5
:101A30006D07EFECF2E0E491F0E0EE0FFF1FE057EE
:101A4000FD4F8591949190936F0780936E076EE39D
:101A500072E084E397E00E940C096EE372E08EE38B
:101A600097E00E940C096EE372E084E497E00E9424
:101A70000C096EE372E08AE597E00E940C0980E6AB
:101A800097E090933307809332070895CF93DF93C5
:101A900000D000D000D01F921F92CDB7DEB778944F
:101AA00084B5826084BD84B5816084BD85B5826063
:101AB00085BD85B5816085BD80916E008160809314
:101AC0006E0010928100809181008260809381007D
:101AD000809181008160809381008091800081608D
:101AE000809380008091B10084608093B1008091E8
:101AF000B00081608093B0008091910082608093FB
:101B0000910080919100816080939100809190007C
:101B10008160809390008091A10082608093A100F9
:101B20008091A10081608093A1008091A0008160DC
:101B30008093A00080912101826080932101809197
:101B40002101816080932101809120018160809337
:101B5000200180917A00846080937A0080917A00DD
:101B6000826080937A0080917A00816080937A000D
:101B700080917A00806880937A001092C1000FB63D
:101B8000F894A8958091600088618093600010921D
:101B900060000FBEE0919F06F091A00682E0808376
:101BA000E0919B06F0919C061082E0919D06F091D9
:101BB0009E068FEC80831092A706E091A306F09119
:101BC000A40686E08083E091A106F091A2068081C0
:101BD00080618083E091A106F091A20680818860F7
:101BE0008083E091A106F091A206808180688083C5
:101BF000E091A106F091A20680818F7D8083E09123
:101C00003207F0913307138E128E118E108E178AC1
:101C1000168A85E690E0958F848F848596EF980FDD
:101C2000943048F02EEC280F243028F022EC280FB6
:101C3000283008F055C021E230E0378B268B23E6B0
:101C400030E0318F208F22E430E0338F228F9430C8
:101C500050F02EEC280F243030F022EC280FB0E0AA
:101C6000A0E0283010F4A8E6B0E02C91943028F0E1
:101C700032EC380F383008F4BAC031E0232B9430FE
:101C800048F09EEC980F943028F08E53B0E0A0E01E
:101C9000883010F4A8E6B0E02C93248536EF320F9C
:101CA000343008F4A6C08EEC820F843008F4A1C052
:101CB00082EC820F883008F09FC08DE690E0948B14
:101CC000838B343008F09BC02650330B81E001C079
:101CD000880F2A95EAF7858B848D958D0197F1F70A
:101CE000828D938D892B41F140916F065091700642
:101CF000E417F50709F14115510569F0DA0153962A
:101D00002D913C91D9019C91DA0155968C91809549
:101D10008923D9018C93868D8E7F868F10926E06D3
:101D200010926D06F0937006E0936F06A389B48954
:101D30008C919589892B8C930E94D7024B015C0171
:101D400094E6C92ED12CE12CF12C0E94D7026819FF
:101D500079098A099B09683E734081059105A8F3BA
:101D6000B1E0CB1AD108E108F108E8EE8E0EE3E00D
:101D70009E1EA11CB11CC114D104E104F10429F779
:101D80000E94FC0260935307709354078093550799
:101D9000909356078091320790913307DC01ED91C3
:101DA000FC910084F185E02D199518161906E4F5CB
:101DB0000E94FC020091530710915407209155078F
:101DC00030915607601B710B820B930B6139714088
:101DD0008105910548F58091320790913307DC0128
:101DE000ED91FC910284F385E02D1995D3CF34E079
:101DF00045CF8BE690E063CF90E080E060CF88E055
:101E0000223309F468CF84E0233309F464CF82E0FD
:101E1000243309F460CF82EC820F883018F42E53FB
:101E2000330B54CF81E057CF60E082E00E949B02E9
:101E300062E085E30E949B0262E08EE00E949B02CA
:101E400061E088E00E949B0261E081E30E949B02C6
:101E500061E081E20E949B0261E08DE20E949B02B0
:101E600061E085E20E949B0260E088E10E949B02A3
:101E700060E08CE10E949B0260E080E20E949B0295
:101E800060E084E20E949B020E94FC026B017C01E4
:101E90000E94FC026C197D098E099F09663071054C
:101EA00081059105A8F361E081E30E946D0261E084
:101EB0008DE20E946D0261E085E20E946D0260E0A9
:101EC00088E00E946D0260E081E20E946D028EE077
:101ED0000E9444029C0191E02115310509F490E033
:101EE0009093070290938206232B09F096C20E94DA
:101EF000DB0A8091600088618093600087E48093B2
:101F00006000A89588E0E82E82E0F82E10E000E05E
:101F1000C8010E94E915F70181937F010F5F1F4FF0
:101F20000A301105A9F780910E0290910F02A0913D
:101F30001002B091110281339547A105B105D0F08F
:101F400088E59BE1A0E0B0E080930E0290930F0241
:101F5000A0931002B093110210920D0210920C0285
:101F6000109208021092090210920A0210920B02BB
:101F70000E94410A80910E0290910F02A0911002DE
:101F8000B09111028093000290930102A09302028B
:101F9000B09303028DE193E00E94BF0565E872E013
:101FA0008FE896E00E940A0680910C0290910D0243
:101FB0000E94D20563E972E08FE896E00E940A066B
:101FC000609108027091090280910A0290910B02BF
:101FD0000E94AA0560EB72E08FE896E00E940A0674
:101FE00060910E0270910F02809110029091110287
:101FF0000E94AA0582E00E9444028C0181E0011542
:10200000110509F480E08093040285E30E944402F4
:1020100021E0892B09F420E02093060288E10E9448
:10202000440221E0892B09F020E020937F068CE117
:102030000E94440221E0892B09F020E020938106D0
:1020400080E20E94440221E0892B09F020E02093E5
:10205000050284E20E94440221E0892B09F020E07D
:1020600020938006012B09F0DBC160E085E20E942D
:102070006D0261E473E0CE0101960E940C0946E016
:1020800050E060E070E0CE0101960E948A08CE0127
:1020900001960E94EA0768E473E0CE0101960E946F
:1020A0000C0946E050E060E070E0CE0101960E942D
:1020B0008A08CE0101960E94EA07809106028111EA
:1020C000D0C160E081E30E946D026FE473E0CE0155
:1020D00001960E940C0942E050E060E070E0CE0101
:1020E00001960E948A08CE0101960E94EA0766E5E1
:1020F00073E0CE0101960E940C0948E050E060E0D8
:1021000070E0CE0101960E948A08CE0101960E94DD
:10211000EA0780917F066DE573E0882309F4C2C168
:10212000CE0101960E940C0946E050E060E070E0AC
:10213000CE0101960E948A08CE0101960E94EA070C
:1021400081E080937E068091810664E673E08823B7
:1021500009F4B1C1CE0101960E940C0946E050E09D
:1021600060E070E0CE0101960E948A08CE010196DF
:102170000E94EA07809105026BE673E0882309F468
:10218000A3C1CE0101960E940C0946E050E060E038
:1021900070E0CE0101960E948A08CE0101960E944D
:1021A000EA078091800663E773E0882309F495C10C
:1021B000CE0101960E940C0946E050E060E070E01C
:1021C000CE0101960E948A08CE0101960E94EA077C
:1021D0000E945B09A8958EE00E94440201E00097EE
:1021E00009F400E020918206021739F000930702FB
:1021F000892B09F07BC10E94DB0A10910702209114
:1022000006022B8782E0112309F4BDC10E9444021B
:102210007C01BB24B394892B09F4B12C85E30E9483
:1022200044026C0111E0892B09F410E08B8518172A
:10223000B1F06FE473E0CE010196C114D10409F04E
:1022400058C10E940C0942E050E060E070E0CE010D
:1022500001960E948A08CE0101960E94EA078091A9
:102260000402B816B1F068E473E0CE010196E114FF
:10227000F10409F045C10E940C0946E050E060E01D
:1022800070E0CE0101960E948A08CE0101960E945C
:10229000EA070E94FB0480917D06811147C00E94DD
:1022A000FC024090790650907A0660907B06709010
:1022B0007C0664197509860997096B3F71058105CC
:1022C0009105C8F1C114D104B1F5809104028823AD
:1022D00091F1E114F10479F568E473E0CE0101961F
:1022E0000E940C0946E050E060E070E0CE010196EB
:1022F0000E948A08CE0101960E94EA070E941D09E9
:102300000E94FC02609375067093760680937706B0
:10231000909378066093790670937A0680937B0693
:1023200090937C0680917D06882329F0CD2809F4BE
:10233000EEC00E94D9090E940C0680918E06882367
:10234000C1F08091000290910102A0910202B0912F
:102350000302885E9340A109B10909F40AC1809380
:10236000000290930102A0930202B09303020E9424
:10237000410A80918D068823E9F0809100029091B6
:102380000102A0910202B091030288519C4FAF4F0D
:10239000BF4F8133E5E79E07A105B10508F0EEC008
:1023A0008093000290930102A0930202B093030273
:1023B0000E94410A80918C0681110E942B0A0E9482
:1023C000FC02C0907106D0907206E0907306F09007
:1023D00074066C197D098E099F0960387E4E86430C
:1023E000910560F00E94410A0E94FC026093710610
:1023F00070937206809373069093740610928E0603
:1024000010928D0610928C06B09204021093060270
:10241000009382060E941904DDCE0E94E70A69CD6E
:1024200061E085E20E946D0261E473E0CE010196F5
:102430000E940C0944E050E060E070E0CE0101969B
:102440000E948A08CE0101960E94EA0768E473E0C0
:10245000CE0101960E940C0944E050E060E070E07B
:1024600024CE61E081E30E946D026FE473E0CE014F
:1024700001960E940C0945E050E060E070E0CE015A
:1024800001960E948A08CE0101960E94EA0766E53D
:1024900073E0CE0101960E940C0947E050E060E035
:1024A00070E02FCECE0101960E940C0944E050E06E
:1024B00060E070E03DCECE0101960E940C0943E041
:1024C00050E060E070E04ECECE0101960E940C0913
:1024D00043E050E060E070E05CCECE0101960E94E7
:1024E0000C0943E050E060E070E06ACE0E94E70A29
:1024F00084CE0E940C0945E050E060E070E0A7CE79
:102500000E940C0944E050E060E070E0BACE0E9406
:10251000FC024090750650907606609077067090A9
:102520007806641975098609970940900002509051
:102530000102609002027090030246165706680678
:10254000790608F4F6CEEF2809F4F5CE68E473E0D6
:10255000CE0101960E940C0944E050E060E070E07A
:10256000CE0101960E948A08CE0101960E94EA07D8
:10257000E0CE88EE93E0A0E0B0E0F1CE80E395E716
:10258000A0E0B0E00DCF0E9444021C01442443941B
:10259000892B09F4412C85E30E9444026C015524E7
:1025A0005394892B09F4512C88E10E9444027C0148
:1025B000B1E0BF83892B09F01F828CE10E944402A5
:1025C0004C01E1E0E887892B09F0188680E20E943F
:1025D00044023C01F1E0F987892B09F0198684E275
:1025E0000E9444025C0121E02A87892B09F01A86A7
:1025F0008114910441F4A114B10429F411E061148F
:10260000710409F410E08B85581681F1C114D104CE
:1026100009F019C160E081E30E946D026FE473E08C
:10262000CE0101960E940C0942E050E060E070E0AB
:10263000CE0101960E948A08CE0101960E94EA0707
:1026400066E573E0CE0101960E940C0948E050E077
:1026500060E070E0CE0101960E948A08CE010196EA
:102660000E94EA078BE793E00E94BF0580918106F4
:1026700098859817C9F064E673E0CE010196892821
:1026800009F00CC10E940C0946E050E060E070E0E7
:10269000CE0101960E948A08CE0101960E94EA07A7
:1026A0008DEC93E00E94BF0580910502A985A817D3
:1026B000C9F06BE673E0CE010196672809F0FFC010
:1026C0000E940C0946E050E060E070E0CE01019607
:1026D0000E948A08CE0101960E94EA078DE194E0EB
:1026E0000E94BF0580918006BA85B817C9F063E7DC
:1026F00073E0CE010196AB2809F0F2C00E940C09EC
:1027000046E050E060E070E0CE0101960E948A0849
:10271000CE0101960E94EA0787E794E00E94BF0578
:1027200080910402481661F12114310409F0E9C0D6
:1027300060E085E20E946D0261E473E0CE010196E3
:102740000E940C0946E050E060E070E0CE01019686
:102750000E948A08CE0101960E94EA0768E473E0AD
:10276000CE0101960E940C0946E050E060E070E066
:10277000CE0101960E948A08CE0101960E94EA07C6
:102780000E94FB0480917F06EF81E81709F4ECC0FA
:102790006DE573E0CE010196E114F10409F0D2C0B9
:1027A0000E940C0946E050E060E070E0CE01019626
:1027B0000E948A08CE0101960E94EA0781ED94E00A
:1027C0000E94BF0510927E06112309F4D4C08091A7
:1027D0007D068111D4C00E94FC02209179063091BF
:1027E0007A0640917B0650917C06621B730B840B2A
:1027F000950B6B3F71058105910508F4EEC0C1147E
:10280000D10409F0EAC0E114F10409F0E6C0211492
:10281000310409F0E2C00E941D09F1E0F0937E0648
:102820000E94FC026093750670937606809377068B
:10283000909378066093790670937A0680937B066E
:1028400090937C0698C061E081E30E946D026FE482
:1028500073E0CE0101960E940C0945E050E060E073
:1028600070E0CE0101960E948A08CE0101960E9476
:10287000EA0766E573E0CE0101960E940C0947E085
:1028800050E060E070E0CE0101960E948A08CE011F
:1028900001960E94EA0784EA93E0E6CE0E940C09C2
:1028A00043E050E060E070E0CE0101960E948A08AB
:1028B000CE0101960E94EA0785EF93E0F3CE0E94D5
:1028C0000C0943E050E060E070E0CE0101960E9408
:1028D0008A08CE0101960E94EA078AE494E000CFBC
:1028E0000E940C0943E050E060E070E0CE010196E8
:1028F0000E948A08CE0101960E94EA0784EA94E0C9
:102900000DCF61E085E20E946D0261E473E0CE01CB
:1029100001960E940C0944E050E060E070E0CE01B6
:1029200001960E948A08CE0101960E94EA0768E497
:1029300073E0CE0101960E940C0944E050E060E093
:1029400070E016CF0E940C0944E050E060E070E0B7
:10295000CE0101960E948A08CE0101960E94EA07E4
:1029600085EF94E00E94BF05112329F080917E0637
:10297000882309F42CCF80917D06882371F189E1A9
:1029800095E0CD2831F584E495E0EF2811F586E750
:1029900095E01123F1F00E94FC02C0907506D090E2
:1029A0007606E0907706F09078066C197D098E091E
:1029B0009F09C0900002D0900102E0900202F090C6
:1029C0000302C616D706E806F90608F080C08BEAAF
:1029D00095E00E94BF050E94D9090E940C068091D3
:1029E0008E068823C1F08091000290910102A0918F
:1029F0000202B0910302885E9340A109B10909F473
:102A000080C08093000290930102A0930202B093D1
:102A100003020E94410A80918D068823E9F080918B
:102A2000000290910102A0910202B091030288512C
:102A30009C4FAF4FBF4F8133E5E79E07A105B1051E
:102A400008F064C08093000290930102A0930202F8
:102A5000B09303020E94410A80918C0681110E946A
:102A60002B0A0E94FC02C0907106D0907206E09082
:102A70007306F09074066C197D098E099F09603801
:102A80007E4E8643910560F00E94410A0E94FC023E
:102A90006093710670937206809373069093740628
:102AA00010928E0610928D0610928C0640920402AF
:102AB00050920602BF81B0937F06E885E0938106BD
:102AC000F985F09305022A8520938006A1CC23285E
:102AD00009F483CF87EE95E00E94BF0568E473E0B8
:102AE000CE0101960E940C0944E050E060E070E0E5
:102AF000CE0101960E948A08CE0101960E94EA0743
:102B00006ACF88EE93E0A0E0B0E07BCF80E395E76A
:102B1000A0E0B0E097CF8AE597E00E94EA0784E45E
:102B200097E00E94EA078EE397E00E94EA0784E3B9
:102B300097E00E94EA078EE292E09093610780930B
:102B4000600780916F06909170068056974071F4EF
:102B5000E0917307F09174079081809175078095DB
:102B6000892380831092700610926F060895BB2708
:102B7000FA01A62F6217710581059105330B30FB11
:102B800066F0AA27660F771F881F991FAA1FA21732
:102B900010F0A21B63953850A9F7A05DAA3308F086
:102BA000A95DA19336F7B111B1931082CA010C94BB
:102BB000D915DC01FC01672F71917723E1F732977A
:102BC00004C07C916D9370836291AE17BF07C8F308
:102BD0000895F999FECF92BD81BDF89A992780B5E5
:102BE0000895262FF999FECF1FBA92BD81BD20BD51
:102BF0000FB6F894FA9AF99A0FBE0196089597FBCA
:102C0000072E16F4009407D077FD09D00E943D16D8
:102C100007FC05D03EF4909581959F4F08957095DF
:102C200061957F4F0895A1E21A2EAA1BBB1BFD01DF
:102C30000DC0AA1FBB1FEE1FFF1FA217B307E4079B
:102C4000F50720F0A21BB30BE40BF50B661F771FF3
:102C5000881F991F1A9469F76095709580959095D3
:102C60009B01AC01BD01CF010895EE0FFF1F881F2E
:102C70008BBF0790F691E02D1994AA1BBB1B51E165
:102C800007C0AA1FBB1FA617B70710F0A61BB70BDC
:102C9000881F991F5A95A9F780959095BC01CD0181
:102CA00008950F931F93CF93DF938230910510F413
:102CB00082E090E0E0918107F091820730E020E02F
:102CC000B0E0A0E0309799F42115310509F44AC02D
:102CD000281B390B24303105D8F58A819B81611579
:102CE000710589F1FB0193838283FE0111C040814C
:102CF00051810281138148175907E0F0481759079D
:102D000099F4109761F012960C93129713961C93F6
:102D10003296CF01DF91CF911F910F9108950093CB
:102D2000810710938207F4CF2115310551F0421726
:102D3000530738F0A901DB019A01BD01DF01F80159
:102D4000C1CFEF01F9CF9093820780938107CDCF58
:102D5000FE01E20FF31F81939193225031093983D1
:102D60002883D7CF20917F0730918007232B41F410
:102D700020911402309115023093800720937F0731
:102D800020911202309113022115310541F42DB723
:102D90003EB74091160250911702241B350BE0916B
:102DA0007F07F0918007E217F307A0F42E1B3F0B7B
:102DB0002817390778F0AC014E5F5F4F24173507AD
:102DC00048F04E0F5F1F5093800740937F07819319
:102DD00091939FCFF0E0E0E09CCFCF93DF930097FB
:102DE000E9F0FC01329713821282A0918107B09121
:102DF0008207ED0130E020E01097A1F420813181BD
:102E0000820F931F20917F07309180072817390781
:102E100009F061C0F0938007E0937F07DF91CF91C5
:102E20000895EA01CE17DF07E8F54A815B819E012C
:102E300041155105B1F7E901FB83EA8349915991A5
:102E4000C40FD51FEC17FD0761F4808191810296B4
:102E5000840F951FE90199838883828193819B83E5
:102E60008A83F0E0E0E012968D919C911397009791
:102E7000B9F52D913C911197CD010296820F931FC8
:102E800020917F07309180072817390739F630974E
:102E900051F51092820710928107B0938007A0939A
:102EA0007F07BCCFD383C28340815181840F951F9C
:102EB000C817D90761F44E5F5F4F88819981480F29
:102EC000591F518340838A819B819383828321157B
:102ED000310509F0B0CFF0938207E09381079ECFD0
:102EE000FD01DC01C0CF13821282D7CF4F925F92D7
:102EF0006F927F928F929F92AF92BF92CF92DF920A
:102F0000EF92FF920F931F93CF93DF938C01009763
:102F100099F4CB01DF91CF911F910F91FF90EF902A
:102F2000DF90CF90BF90AF909F908F907F906F90E9
:102F30005F904F900C945116FC01E60FF71F9C0117
:102F400022503109E217F30708F4AEC0D901CD9140
:102F5000DC911197C617D70720F1C530D10578F05D
:102F6000CE0104978617970750F0C61BD70B229700
:102F7000C193D1936D937C93CF010E94ED16C8014C
:102F8000DF91CF911F910F91FF90EF90DF90CF9045
:102F9000BF90AF909F908F907F906F905F904F9079
:102FA00008955B01AC1ABD0A4C018C0E9D1EA091C8
:102FB0008107B0918207512C412CF12CE12C109704
:102FC00031F580917F07909180078815990509F068
:102FD0005CC04616570608F058C0809112029091C6
:102FE0001302009741F48DB79EB74091160250919D
:102FF0001702841B950BE817F90708F055C0F093EA
:103000008007E0937F07F90171836083B8CF8D91CA
:103010009C91119712966C90129713967C9013972F
:10302000A815B90559F56C0142E0C40ED11CCA14AB
:10303000DB0420F1AC014A195B09DA0112961597FD
:1030400080F06282738251834083D9016D937C93B7
:10305000E114F10471F0D7011396FC93EE931297EB
:103060008ECF22968C0F9D1FF90191838083F301EF
:10307000EFCFF0938207E093810781CF481659067E
:1030800008F42C017D01D3019ACFCB010E94511687
:103090007C01009749F0AE01B8010E945718C801A1
:1030A0000E94ED1687016BCF10E000E068CFFB01B6
:1030B000DC0102C001900D9241505040D8F70895B4
:1030C000FB01DC018D91019080190110D9F3990B5E
:1030D0000895FB01DC0101900D920020E1F70895B5
:1030E00011E0C9EAD1E000E006C0802FFE010E9495
:1030F00035162196011DCA3AD10780E00807A9F7C5
:04310000F894FFCF71
:10310400581B000001010101000000000200A00F93
:10311400000000008307800000000000AC031603D9
:103124004303F903740352036603000000006304BD
:103134001603F8046204BF04D7044A040D0A003DD0
:1031440000FFFFFF00636D64003D220070342E70A9
:1031540069630070372E7069630074302E7478745C
:103164000074312E7478740074322E7478740020D4
:103174002D2D20534156454420504152414D533A40
:10318400202D2D200065632E636C75625F74797049
:10319400653A0065632E454550524F4D5F746F7418
:1031A400616C5F73686166745F636F756E743A0017
:1031B40065632E73617665645F6F6E5F74696D65B8
:1031C4003A007031322E706963005B494E464F5DA0
:1031D40020537769746368696E67206D61636869F9
:1031E4006E6520746F204155544F4D41544943201E
:1031F4004D4F4445005B494E464F5D2053776974FB
:103204006368696E67206D616368696E6520746FB9
:10321400204D414E55414C204D4F444500202D2D0D
:1032240020504152414D53204C4F41444544205578
:10323400504F4E20535441525455503A202D2D2076
:103244000070362E7069630070332E7069630070ED
:10325400322E7069630070352E7069630070382EE9
:103264007069630070392E706963007031302E709C
:103274006963007031312E706963005B494E464FBB
:103284005D20444F4F5220434C4F5345204F5045EF
:103294004E2D3E434C4F5345205452414E534954B6
:1032A400494F4E005B494E464F5D20444F4F5220DC
:1032B400434C4F534520434C4F53452D3E4F5045AF
:1032C4004E205452414E534954494F4E005B494E8F
:1032D400464F5D2044454C54412043454C4C204FBF
:1032E4004E204E4F2D3E594553205452414E534982
:1032F40054494F4E005B494E464F5D2044454C5463
:10330400412043454C4C204F4E205945532D3E4EB1
:103314004F205452414E534954494F4E005B494E3D
:10332400464F5D2044454C54412043454C4C204677
:1033340041554C544544204E4F2D3E59455320543D
:1033440052414E534954494F4E005B494E464F5DDE
:103354002044454C54412043454C4C204641554C57
:10336400544544205945532D3E4E4F205452414E0E
:10337400534954494F4E005B494E464F5D204445E6
:103384004C54412043454C4C20494E204155544F08
:10339400204E4F2D3E594553205452414E534954CB
:1033A400494F4E005B494E464F5D2044454C5441C5
:1033B4002043454C4C20494E204155544F205945FB
:1033C400532D3E4E4F205452414E534954494F4E73
:1033D400005B494E464F5D2044454C5441205349BF
:1033E40050204E4F2D3E594553205452414E53497F
:1033F40054494F4E005B494E464F5D2044454C5462
:103404004120534950205945532D3E4E4F2054528C
:10341400414E534954494F4E005B494E464F5D203F
:1034240053544F5050454420424C415354494E4705
:103434002E20526561736F6E3A20444F4F52204FD5
:1034440050454E005B494E464F5D2053544F5050FB
:10345400454420424C415354494E472E2044454C48
:103464005441205348414654204E4F5420494E2045
:10347400504C414345005B494E464F5D2053544FE9
:103484005050454420424C415354494E472E204409
:10349400454C5441204D414348494E45204E4F54DC
:1034A40020415641494C41424C45005B494E464FF0
:1034B4005D2053544F5050454420424C415354498D
:1034C4004E47202873756363657373292E20424C1D
:1034D4004153542054494D45204143434F4D504C92
:1034E400495348454421005B494E464F5D2053549F
:1034F4004F5050454420424C415354494E472E208E
:10350400504859534943414C205348414654205252
:10351400454D4F5645442046524F4D2053454E533A
:043524004F52000002
:00000001FF
