:100000000C949E010C94CF010C94CF010C94CF0161
:100010000C94CF010C94CF010C94CF010C94CF0120
:100020000C94CF010C94C6060C94C6060C94C6061C
:100030000C9442070C94CF010C94CF010C94CF0187
:100040000C94CF010C94CF010C94CF010C94CF01F0
:100050000C94CF010C94CF010C94CF010C947C062E
:100060000C94CF010C94CF010C94CF010C94CF01D0
:100070000C94CF010C94CF010C94CF010C94CF01C0
:100080000C94CF010C94CF010C94CF010C94CF01B0
:100090000C94CF010C94CF010C94CF010C94CF01A0
:1000A0000C94CF010C94CF010C94CF010C94CF0190
:1000B0000C94CF010C94CF010C94CF010C94CF0180
:1000C0000C94CF010C94CF010C94CF010C94CF0170
:1000D0000C94CF010C94CF010C94CF010C94CF0160
:1000E0000C94CF010C94C70C0C948E0C0C94BE0C89
:1000F0000C94A90C0C94FF020C94FD010C94DF0CE1
:100100000C94F10C0C947C0C0C94EF010C942C03CB
:100110000C94000D0C94A60C0C94970C0C949A0C57
:100120000C94F9010C942F020C9445030C94AC0D23
:100130000C94AF0C0C94E50C0C94880C0C94E20C11
:100140000C94BB0C0C94B20C0C94F70C0C94EE0CAD
:100150000C94210D0C94CA0C0C940C0D0C94A30C53
:100160000C9404020C9401020C940E020C94F40CF6
:100170000C9422020C9430020C9444030C94FA0C5C
:100180000C9434020C94940C0C94760C0C94D60CB5
:100190000C94DA030C94A00C0C94D30C0C94F50181
:1001A0000C94FD0C0C94A1030C941C020C941802EA
:1001B0000C94AC0C0C94B9030C94D90C0C94140250
:1001C0000C94D00C0C94910C0C94CD0C0C94C40C8D
:1001D0000C94090D0C94030D0C94820C0C942602C3
:1001E0000C94B80C0C94DC0C0C94E80C0C948B0C58
:1001F0000C94790C0C949D0C0C94850C0C942A0294
:100200000C94060D0C94B50C0C940A020C947F0C03
:100210000C94EB0C0C94C10C00002100240027006E
:100220002A002D0030003300010100000401070105
:100230000A0100002200250028002B002E003100BA
:10024000340002010000050108010B01000020003C
:100250002300260029002C002F003200000100009E
:100260000301060109010505050507050808080839
:10027000020202020A0A080804040404010101013E
:100280000101010103030303030303030407070739
:100290000C0C0C0C0C0C0C0C0202020206060606DE
:1002A000060606060B0B0B0B0B0B0B0B01021020AB
:1002B000200808102040102040800201020108049C
:1002C0000201010204081020408080402010080430
:1002D0000201800402018040201008040201080489
:1002E00002010102040810204080010204081020CD
:1002F000408000000A0B02090C0D0E0807030401E0
:1003000000000000000000000000000000000000ED
:1003100000000000000000000000000000001211BA
:1003200010000000000000000000000000000000BD
:100330000000000000000000210DAC0D11241FBEC4
:10034000CFEFD1E2DEBFCDBF00E00CBF23E0A0E6DF
:10035000B2E001C01D92AC31B207E1F712E0A0E0BB
:10036000B2E0E6E4F1E200E00BBF02C007900D92BC
:10037000A036B107D9F711E0CDE9D1E000E006C021
:1003800021970109802FFE010E94560ECC39D1071A
:1003900080E00807A9F70E94A6070C9491100C941E
:1003A00000008150823108F05AC0E82FF0E0882721
:1003B000E352FE4F8F4F0C94560EFD010102EF01E8
:1003C000F501F9012F0204020A020E0214021802BA
:1003D0001C02220226022F022A02300234028091DD
:1003E00080008F77809380000895809180008F7DBA
:1003F000F9CF80918000877FF5CF84B58F7784BD5A
:10040000089584B58F7DFBCF8091B0008F77809366
:10041000B00008958091B0008F7DF9CF8091900059
:100420008F77809390000895809190008F7DF9CF11
:1004300080919000877FF5CF8091A0008F77809387
:10044000A00008958091A0008F7DF9CF8091A00039
:10045000877FF5CF809120018F77809320010895C9
:10046000809120018F7DF9CF80912001877FF5CF8A
:10047000CF93DF93282F30E0F901EE50FD4F8491A8
:10048000F901E455FD4FD491F901EA59FD4FC491AA
:10049000CC23A1F081110E94D101EC2FF0E0EE0FEE
:1004A000FF1FE45BFD4FA591B491EC91ED2381E03A
:1004B00090E009F480E0DF91CF91089580E090E032
:1004C000FACF1F93CF93DF93282F30E0F901EE503E
:1004D000FD4F8491F901E455FD4FD491F901EA599A
:1004E000FD4FC491CC23A9F0162F81110E94D10198
:1004F000EC2FF0E0EE0FFF1FEE5CFD4FA591B491E5
:100500008FB7F894EC91111108C0D095DE23DC93DD
:100510008FBFDF91CF911F910895DE2BF8CFCF933E
:10052000DF9390E0FC01E455FD4F24918A599D4FE3
:10053000FC0184918823D1F090E0880F991FFC0181
:10054000E85EFD4FA591B491FC01EE5CFD4FC591B5
:10055000D49161110EC09FB7F8948C91E22FE09571
:100560008E238C932881E223E8839FBFDF91CF9174
:1005700008958FB7F894EC91E22BEC938FBFF6CFF0
:100580003FB7F8948091E0029091E102A091E202DD
:10059000B091E30226B5A89B05C02F3F19F0019644
:1005A000A11DB11D3FBFBA2FA92F982F8827BC01CD
:1005B000CD01620F711D811D911D42E0660F771FF5
:1005C000881F991F4A95D1F708952FB7F894609125
:1005D000DC027091DD028091DE029091DF022FBF7C
:1005E0000895DB0114964D915C9115976D917C9166
:1005F000DC01ED91FC910280F381E02D1994AF9222
:10060000BF92CF92DF92EF92FF920F931F93CF93FF
:10061000DF936C017B018B01040F151FEB015E0161
:10062000AE18BF08C017D10759F06991D601ED91F6
:10063000FC910190F081E02DC6011995892B79F785
:10064000C501DF91CF911F910F91FF90EF90DF9047
:10065000CF90BF90AF9008952091C9023091CA0207
:100660002817390771F49091C7028091C802981732
:1006700041F0E091C702F0E0E957FD4F808190E042
:1006800008958FEF9FEF08950895EF92FF920F93D3
:100690001F93CF93DF93DC015C96ED90FC905D9708
:1006A000E114F10479F481E090E013969C938E9329
:1006B000129790E080E0DF91CF911F910F91FF9012
:1006C000EF9008955196ED91FC91529750968C9130
:1006D0005097982F90950FB75E962C915E97122F9A
:1006E000127021FD6095F8942081112319F1282BB7
:1006F0002083E7012197F1F728E0462F50E0308171
:1007000060FF1AC0382B3083E7012197F1F7BA0157
:1007100075956795215089F7112381F08081892390
:1007200080830FBF5C968D919C910197F1F781E0DA
:1007300090E0C1CF2923DCCF3923E5CF9081892BED
:10074000EFCF2091C9023091CA022817390771F4FE
:100750008091C8022091C70290E0805C9F4F821B6D
:10076000910960E470E00E94200E089590E080E01E
:1007700008952091C9023091CA0228173907B9F4A7
:100780009091C7028091C802981789F0E091C70242
:10079000F0E0E957FD4F80812091C70230E02F5FE4
:1007A0003F4F2F7333272093C70290E008958FEFB8
:1007B0009FEF089590E080E00895FF920F931F93BC
:1007C000CF93DF9306E012E0D0E0C0E0F801F190B3
:1007D0008F01CE010E940A0EF81621F06F2DCE0176
:1007E0000E94120E2196CA30D10581F786E092E070
:1007F000DF91CF911F910F91FF900895FB01019020
:100800000020E9F73197AF01461B570BDC01ED9152
:10081000FC910280F381E02D1994FC01808191818B
:10082000009711F00C940E0F0895EF92FF920F9322
:100830001F93CF93DF93EC017B018A01888199811B
:10084000009729F02A813B812417350788F4B801E5
:100850006F5F7F4F0E94970F009791F09983888375
:100860001B830A832C813D81232B11F4FC01108210
:100870001D830C83B701888199810E948A100CC066
:1008800088819981009711F00E940E0F19821882B9
:100890001D821C821B821A82CE01DF91CF911F9193
:1008A0000F91FF90EF900895EF92FF920F931F9397
:1008B000CF93DF93CDB7DEB7A1970FB6F894DEBF25
:1008C0000FBECDBF8C01CB01BA01F801118210829D
:1008D00013821282158214822AE0AE014F5F5F4FAD
:1008E0007A010E94D80DF70101900020E9F73197B5
:1008F000AF014E195F09B701C8010E941504A19606
:100900000FB6F894DEBF0FBECDBFDF91CF911F9120
:100910000F91FF90EF900895CF93DF93EC01FB01CF
:100920008617970749F0608171816115710541F063
:10093000448155810E941504CE01DF91CF91089525
:1009400088819981009711F00E940E0F19821882F8
:100950001D821C821B821A82EFCFCF93DF93EB01A3
:10096000BC018CEE92E00E948C04BE0186EF92E006
:100970000E948C048091FA029091FB02C091EA02DD
:10098000D091EB02892BC9F068E272E08091F60207
:100990009091F7020E948110892B79F46CEE72E03D
:1009A000CE010E94F1026CE272E08091EA02909125
:1009B000EB02DF91CF910C94FE036CEE72E0CE015E
:1009C0000E94F10260E372E08091EA029091EB02F2
:1009D0000E94FE0366EF72E08091EA029091EB02C2
:1009E0000E94F10261E372E08091EA029091EB02D1
:1009F0000E94FE03D8CF8F929F92AF92BF92EF9248
:100A0000FF920F931F93CF93DF93CDB7DEB7A197DC
:100A10000FB6F894DEBF0FBECDBF4A015B01BC012B
:100A20008CEE92E00E948C048092F2029092F3028B
:100A3000A092F402B092F5026CEE72E08091EA02AC
:100A40009091EB020E94F10263E372E08091EA026E
:100A50009091EB020E94FE03E090EA02F090EB021C
:100A60002091F2023091F3024091F4025091F5028C
:100A700019A28E010F5D1F4F8AE0882E912CA12CA8
:100A8000B12CCA01B901A50194010E94340E605D28
:100A9000F80162938F01211531054105510589F750
:100AA000309721F0BF01C7010E94FE036CE272E0A3
:100AB0008091EA029091EB020E94FE03A1960FB68C
:100AC000F894DEBF0FBECDBFDF91CF911F910F9184
:100AD000FF90EF90BF90AF909F908F900895FC0192
:100AE000118210821382128215821482FB010190FE
:100AF0000020E9F73197AF01461B570B0C94150402
:100B0000CF93DF93CDB7DEB72C970FB6F894DEBF47
:100B10000FBECDBF409164025091650260916602A4
:100B200070916702CE0107960E94540465E372E05B
:100B3000CE0101960E946F05BE01695F7F4FCE0115
:100B400001960E94AD04CE0101960E940D04CE01D3
:100B500007960E940D04609100027091010280913D
:100B600002029091030228EE33E040E050E00E9440
:100B7000340EBA01A901CE0107960E9454046CE319
:100B800072E0CE0101960E946F05BE01695F7F4F42
:100B9000CE0101960E94AD04CE0101960E940D0483
:100BA000CE0107960E940D04409106025091070263
:100BB0006091080270910902CE0107960E945404C8
:100BC00063E472E0CE0101960E946F05BE01695F89
:100BD0007F4FCE0101960E94AD04CE0101960E9486
:100BE0000D04CE0107960E940D042C960FB6F894C2
:100BF000DEBF0FBECDBFDF91CF910895CF93DF93BE
:100C000000D000D0CDB7DEB71092DA0260E088E005
:100C10000E9461026AE472E0CE0101960E946F05B3
:100C200043E050E060E070E0CE0101960E94FB04DA
:100C3000CE0101960E940D0480916402909165029C
:100C4000A0916602B09167020196A11DB11D80932B
:100C5000640290936502A0936602B09367020E94BB
:100C6000800526960FB6F894DEBF0FBECDBFDF918C
:100C7000CF910895E6E0F2E080819181A281B38175
:100C80004091640250916502609166027091670222
:100C9000840F951FA61FB71F4091600250916102FB
:100CA0006091620270916302841B950BA60BB70BD7
:100CB00080839183A283B38380910002909101028B
:100CC000A0910202B091030286839783A087B18727
:100CD0000E94DD038091640290916502A0916602FA
:100CE000B09167028093600290936102A0936202C8
:100CF000B09363020C9480051F920F920FB60F926F
:100D000011242F933F938F939F93AF93BF93809121
:100D1000DC029091DD02A091DE02B091DF02309101
:100D2000DB0223E0230F2D3758F50196A11DB11DDD
:100D30002093DB028093DC029093DD02A093DE021D
:100D4000B093DF028091E0029091E102A091E20273
:100D5000B091E3020196A11DB11D8093E002909332
:100D6000E102A093E202B093E302BF91AF919F91A1
:100D70008F913F912F910F900FBE0F901F9018955C
:100D800026E8230F0296A11DB11DD2CF1F920F920C
:100D90000FB60F9211240BB60F922F933F934F93E0
:100DA0005F936F937F938F939F93AF93BF93EF93D3
:100DB000FF93E091C902F091CA02309749F0A685ED
:100DC000B7858585968D91FF16C09C918923B1F4D6
:100DD000FF91EF91BF91AF919F918F917F916F9113
:100DE0005F914F913F912F910F900BBE0F900FBECF
:100DF0000F901F9018959C91892351F7A389B4896E
:100E00009C918589809589238C9386899789019700
:100E1000F1F7608D718DA685B785558538E020E0A6
:100E2000CB010197F1F7822F90E095958795282FB8
:100E30004C91452309F02068315091F7868D81FD52
:100E400020958091C80290E001968F739927309188
:100E5000C702381799F0A091C802B0E0A957BD4F5A
:100E60002C938093C802828D938D0197F1F7A3890B
:100E7000B4898C919589892B8C93AACF868D8160BA
:100E8000868FF1CF1F920F920FB60F9211240BB6DF
:100E90000F922F933F934F935F936F937F938F9313
:100EA0009F93AF93BF93EF93FF930FB6F894A895DA
:100EB00080916000886180936000109260000FBE96
:100EC000E6E0F2E080819181A281B38140916402E9
:100ED000509165026091660270916702840F951FC0
:100EE000A61FB71F4091600250916102609162029B
:100EF00070916302841B950BA60BB70B80839183C3
:100F0000A283B3838091000290910102A09102021A
:100F1000B091030286839783A087B1870E94DD0387
:100F200088E080936000FF91EF91BF91AF919F9116
:100F30008F917F916F915F914F913F912F910F9082
:100F40000BBE0F900FBE0F901F901895CF93DF939D
:100F500000D000D0CDB7DEB7789484B5826084BD70
:100F600084B5816084BD85B5826085BD85B58160AD
:100F700085BD80916E00816080936E00109281002B
:100F800080918100826080938100809181008160E6
:100F900080938100809180008160809380008091A7
:100FA000B10084608093B1008091B0008160809333
:100FB000B0008091910082608093910080919100B7
:100FC0008160809391008091900081608093900077
:100FD0008091A10082608093A1008091A100816036
:100FE0008093A1008091A00081608093A0008091F7
:100FF0002101826080932101809121018160809391
:1010000021018091200181608093200180917A00EC
:10101000846080937A0080917A00826080937A0065
:1010200080917A00816080937A0080917A00806854
:1010300080937A001092C100E091EA02F091EB02F5
:10104000138E128E118E108E178A168A85E690E006
:10105000958F848F848596EF980F943048F02EEC0E
:10106000280F243028F022EC280F283008F055C033
:1010700021E230E0378B268B23E630E0318F208F62
:1010800022E430E0338F228F943050F02EEC280F82
:10109000243030F022EC280FB0E0A0E0283010F42B
:1010A000A8E6B0E02C91943028F032EC380F3830BC
:1010B00008F4BAC031E0232B943048F09EEC980F2E
:1010C000943028F08E53B0E0A0E0883010F4A8E609
:1010D000B0E02C93248536EF320F343008F4A6C0EC
:1010E0008EEC820F843008F4A1C082EC820F88302D
:1010F00008F49FC090E080E0948B838B343008F03C
:101100009BC02650330B81E001C0880F2A95EAF777
:10111000858B848D958D0197F1F7828D938D892B29
:1011200041F14091C9025091CA02E417F50709F153
:101130004115510569F0DA0153962D913C91D90181
:101140009C91DA0155968C9180958923D9018C93D5
:10115000868D8E7F868F1092C8021092C702F09300
:10116000CA02E093C902A389B4898C919589892B1D
:101170008C930E94C0024B015C0134E6C32ED12C3B
:10118000E12CF12C0E94C002681979098A099B0997
:10119000683E734081059105A8F3B1E0CB1AD108F0
:1011A000E108F108E8EE8E0EE3E09E1EA11CB11CE2
:1011B000C114D104E104F10429F70E94E50260930F
:1011C0000B0370930C0380930D0390930E03809197
:1011D000EA029091EB02DC01ED91FC910084F18533
:1011E000E02D199518161906E4F50E94E502009104
:1011F0000B0310910C0320910D0330910E03601B23
:10120000710B820B930B613971408105910548F593
:101210008091EA029091EB02DC01ED91FC91028455
:10122000F385E02D1995D3CF34E045CF8BE690E0E0
:1012300063CF8DE690E060CF88E0223309F468CF79
:1012400084E0233309F464CF82E0243309F460CFCF
:1012500082EC820F883018F42E53330B54CF81E088
:1012600057CF0FB6F894A89580916000886180935D
:101270006000109260000FBE60E082E00E948F026A
:1012800060E085E30E948F0261E088E00E948F02A7
:101290000E94E5026B017C010E94E5026C197D0948
:1012A0008E099F096630710581059105A8F360E0FC
:1012B00088E00E94610280916000886180936000F4
:1012C00087E480936000A89526E0E22E22E0F22ECB
:1012D00010E000E0C8010E940A0EF70181937F012F
:1012E0000F5F1F4F0A301105A9F780910C029091F2
:1012F0000D02A0910E02B0910F0281339547A10516
:10130000B105D0F088E59BE1A0E0B0E080930C024D
:1013100090930D02A0930E02B0930F0210920B0255
:1013200010920A021092060210920702109208020E
:10133000109209020E943A0680910C0290910D02CF
:10134000A0910E02B0910F028093000290930102CF
:10135000A0930202B09303020E94800511E088EE80
:10136000882E83E0982EA12CB12C98E9492E9AE37F
:10137000592E612C712CA89582E00E9438027C01C4
:1013800033243394892B09F4312C85E30E943802ED
:101390006C0101E0892B09F400E080910502081737
:1013A000B1F061E572E0CE010196C114D10409F0FB
:1013B0006EC10E946F0542E050E060E070E0CE0137
:1013C00001960E94FB04CE0101960E940D048091BB
:1013D00004023816B1F068E572E0CE010196E1141E
:1013E000F10409F05BC10E946F0546E050E060E047
:1013F00070E0CE0101960E94FB04CE0101960E948E
:101400000D040E94E5022091D6023091D70240914E
:10141000D8025091D902621773078407950740F4E8
:101420001092D6021092D7021092D8021092D902CE
:101430000E94E5022091CB023091CC024091CD0276
:101440005091CE02621773078407950740F41092FB
:10145000CB021092CC021092CD021092CE0280915B
:10146000DA02811161C00E94E5022091D60230911A
:10147000D7024091D8025091D902621B730B840BA2
:10148000950B6B3F71058105910508F452C0C1149D
:10149000D10409F04EC080910402882309F449C0A8
:1014A000E114F10409F045C068E572E0CE0101964F
:1014B0000E946F0546E050E060E070E0CE010196CA
:1014C0000E94FB04CE0101960E940D041093DA02E3
:1014D0006AE472E0CE0101960E946F0546E050E09A
:1014E00060E070E0CE0101960E94FB04CE010196FF
:1014F0000E940D0461E088E00E9461020E94E50202
:101500006093D2027093D3028093D4029093D50259
:101510006093D6027093D7028093D8029093D90239
:101520008091DA02882329F0CD2809F4BEC00E94F8
:10153000FE058091EA029091EB02DC01ED91FC91B5
:101540000084F185E02D199503970CF4F7C0809184
:10155000EA029091EB02DC01ED91FC910284F385AB
:10156000E02D199580930A030E94E50260930B0316
:1015700070930C0380930D0390930E0380910A03E4
:10158000833201F18091EA029091EB02DC01ED914E
:10159000FC910284F385E02D199580930A030E9443
:1015A000E502C0900B03D0900C03E0900D03F09087
:1015B0000E036C197D098E099F0965367105810539
:1015C0009105E0F280910A03833209F0B7C080915F
:1015D000EA029091EB02DC01ED91FC910284F3852B
:1015E000E02D1995809311030E94E50260930B038F
:1015F00070930C0380930D0390930E0310930F03CD
:101600008091EA029091EB02DC01ED91FC91008463
:10161000F185E02D19952091110328171906B1F0D5
:10162000ACF00E94E502C0900B03D0900C03E09058
:101630000D03F0900E036C197D098E099F09653624
:10164000710581059105E0F210920F0380910F035F
:10165000882309F473C08091EA029091EB02DC01C7
:10166000ED91FC910284F385E02D19958093100390
:10167000803509F44CC0843509F4EEC08093E8024B
:10168000809111038093E9020E94000057C00E94DC
:101690006F0545E050E060E070E091CE0E946F057C
:1016A00044E050E060E070E0A4CE0E94E5022091AA
:1016B000D2023091D3024091D4025091D502621BE4
:1016C000730B840B950B2091000230910102409125
:1016D000020250910302261737074807590708F4FA
:1016E00026CFEF2809F425CF68E572E0CE010196F8
:1016F0000E946F0544E050E060E070E0CE0101968A
:101700000E94FB04CE0101960E940D0410CF80912F
:10171000E4029091E5029093E7028093E6028091C3
:10172000EA029091EB02DC01ED91FC910284F385D9
:10173000E02D19959093E5028093E4028091D10207
:101740008823C1F08091000290910102A0910202D1
:10175000B0910302885E9340A109B10909F45FC109
:101760008093000290930102A0930202B0930302BF
:101770000E943A068091D0028823E9F0809100020D
:1017800090910102A0910202B091030288519C4FF6
:10179000AF4FBF4F8939EAE39E07A105B10508F0B5
:1017A00047C18093000290930102A0930202B0937C
:1017B00003020E943A068091CF028823E1F0109242
:1017C00006021092070210920802109209028091FC
:1017D000000290910102A0910202B0910302809355
:1017E0000C0290930D02A0930E02B0930F020E9480
:1017F000DD030E9480050E94E502C090CB02D090DC
:10180000CC02E090CD02F090CE026C197D098E09D9
:101810009F0960387E4E8643910560F00E943A062B
:101820000E94E5026093CB027093CC028093CD02BC
:101830009093CE021092D1021092D0021092CF0259
:10184000309204020093050280E090E0892B09F4B5
:1018500092CD0E9400008FCD8091EA029091EB0220
:10186000DC01ED91FC910284F385E02D1995FC01DA
:10187000FF27E333F10508F061CF8827ED5BF34FD5
:101880008F4F0C94560E760C790C7C0C7F0C820CCE
:10189000850C880C8B0C8E0C910C940C970C9A0C6C
:1018A0009D0CA00CA30CA60CA90CAC0CAF0CB20C9C
:1018B000B50CB80CBB0CBE0CC10CC40CC70CCA0CCC
:1018C000CD0CD00CD30CD60CD90CDC0CDF0CE20CFC
:1018D000E50CE80CEB0CEE0CF10CF40CF70CFA0C2C
:1018E000FD0C000D030D060D090D0C0D1093D1021A
:1018F00025CF1093D00222CF1093CF021FCF0E948A
:1019000000001CCF0E94000019CF0E94000016CFDB
:101910000E94000013CF0E94000010CF0E94000020
:101920000DCF0E9400000ACF0E94000007CF0E9446
:10193000000004CF0E94000001CF0E940000FECEF4
:101940000E940000FBCE0E940000F8CE0E94000022
:10195000F5CE0E940000F2CE0E940000EFCE0E9461
:101960000000ECCE0E940000E9CE0E940000E6CE0E
:101970000E940000E3CE0E940000E0CE0E94000022
:10198000DDCE0E940000DACE0E940000D7CE0E9479
:101990000000D4CE0E940000D1CE0E940000CECE26
:1019A0000E940000CBCE0E940000C8CE0E94000022
:1019B000C5CE0E940000C2CE0E940000BFCE0E9491
:1019C0000000BCCE0E940000B9CE0E940000B6CE3E
:1019D0000E940000B3CE0E940000B0CE0E94000022
:1019E000ADCE0E940000AACE0E940000A7CE0E94A9
:1019F0000000A4CE0E940000A1CE0E9400009ECE56
:101A00000E9400009BCE0E94000098CE0E94000021
:101A100095CE0E94000092CE0E9400008FCE809250
:101A2000000290920102A0920202B0920302A0CEA4
:101A300040920002509201026092020270920302F0
:101A4000B8CE10926B0210926A0288EE93E0A0E08A
:101A5000B0E080936C0290936D02A0936E02B093FD
:101A60006F028AE192E0909369028093680210927B
:101A70007F0210927E0210928102109280021092D8
:101A80008302109282021092850210928402609169
:101A900086026E7F6D7F609386026695617081E03D
:101AA00068278CE00E94610261E08CE00E948F0256
:101AB000E8EBF2E0E491E0937802E2E7F2E0E4910F
:101AC000F0E0EE0FFF1FEE5CFD4F85919491909337
:101AD0007A028093790260E08BE00E948F0280910D
:101AE000860281FD04C061E08BE00E9461028BE010
:101AF00080937402E7EBF2E0E491E0937502E1E792
:101B0000F2E0E491F0E0EE0FFF1FE45BFD4F859102
:101B10009491909377028093760262E372E08CEE68
:101B200092E00E946F0562E372E086EF92E00E940D
:101B30006F0562E372E08CEF92E00E946F0562E352
:101B400072E082E193E00E946F0588E692E0909354
:101B5000EB028093EA02089582E193E00E940D0473
:101B60008CEF92E00E940D0486EF92E00E940D043B
:101B70008CEE92E00E940D048AE192E0909369025B
:101B8000809368028091C9029091CA02885692405F
:101B900071F4E0917B02F0917C02908180917D0252
:101BA0008095892380831092CA021092C9020895F9
:101BB000BB27FA01A62F6217710581059105330B2A
:101BC00030FB66F0AA27660F771F881F991FAA1F90
:101BD000A21710F0A21B63953850A9F7A05DAA3395
:101BE00008F0A95DA19336F7B111B1931082CA0133
:101BF0000C94FA0DDC01FC01672F71917723E1F75A
:101C0000329704C07C916D9370836291AE17BF07C9
:101C1000C8F30895F999FECF92BD81BDF89A99272E
:101C200080B50895262FF999FECF1FBA92BD81BDC8
:101C300020BD0FB6F894FA9AF99A0FBE019608954E
:101C400097FB072E16F4009407D077FD09D00E9469
:101C50005E0E07FC05D03EF4909581959F4F089548
:101C6000709561957F4F0895A1E21A2EAA1BBB1BA8
:101C7000FD010DC0AA1FBB1FEE1FFF1FA217B30758
:101C8000E407F50720F0A21BB30BE40BF50B661F6E
:101C9000771F881F991F1A9469F760957095809532
:101CA00090959B01AC01BD01CF010895EE0FFF1F80
:101CB000881F8BBF0790F691E02D1994AA1BBB1BC0
:101CC00051E107C0AA1FBB1FA617B70710F0A61B3C
:101CD000B70B881F991F5A95A9F780959095BC015D
:101CE000CD0108950F931F93CF93DF938230910519
:101CF00010F482E090E0E0911A03F0911B0330E0D1
:101D000020E0B0E0A0E0309799F42115310509F406
:101D10004AC0281B390B24303105D8F58A819B81B4
:101D20006115710589F1FB0193838283FE0111C066
:101D3000408151810281138148175907E0F048170B
:101D4000590799F4109761F012960C931297139615
:101D50001C933296CF01DF91CF911F910F9108957F
:101D600000931A0310931B03F4CF2115310551F092
:101D70004217530738F0A901DB019A01BD01DF01C9
:101D8000F801C1CFEF01F9CF90931B0380931A03A1
:101D9000CDCFFE01E20FF31F8193919322503109C1
:101DA00039832883D7CF2091180330911903232B2F
:101DB00041F42091120230911302309319032093C1
:101DC000180320911002309111022115310541F4C0
:101DD0002DB73EB74091140250911502241B350BCC
:101DE000E0911803F0911903E217F307A0F42E1BFA
:101DF0003F0B2817390778F0AC014E5F5F4F24176F
:101E0000350748F04E0F5F1F509319034093180396
:101E1000819391939FCFF0E0E0E09CCFCF93DF934D
:101E20000097E9F0FC01329713821282A0911A0305
:101E3000B0911B03ED0130E020E01097A1F4208168
:101E40003181820F931F20911803309119032817B5
:101E5000390709F061C0F0931903E0931803DF918B
:101E6000CF910895EA01CE17DF07E8F54A815B813B
:101E70009E0141155105B1F7E901FB83EA834991C0
:101E80005991C40FD51FEC17FD0761F48081918132
:101E90000296840F951FE90199838883828193813B
:101EA0009B838A83F0E0E0E012968D919C911397DA
:101EB0000097B9F52D913C911197CD010296820FB3
:101EC000931F20911803309119032817390739F609
:101ED000309751F510921B0310921A03B093190317
:101EE000A0931803BCCFD383C28340815181840F58
:101EF000951FC817D90761F44E5F5F4F888199819C
:101F0000480F591F518340838A819B819383828329
:101F10002115310509F0B0CFF0931B03E0931A03AC
:101F20009ECFFD01DC01C0CF13821282D7CF4F922A
:101F30005F926F927F928F929F92AF92BF92CF9259
:101F4000DF92EF92FF920F931F93CF93DF938C0159
:101F5000009799F4CB01DF91CF911F910F91FF90E2
:101F6000EF90DF90CF90BF90AF909F908F907F9039
:101F70006F905F904F900C94720EFC01E60FF71F6C
:101F80009C0122503109E217F30708F4AEC0D901D1
:101F9000CD91DC911197C617D70720F1C530D10537
:101FA00078F0CE0104978617970750F0C61BD70B21
:101FB0002297C193D1936D937C93CF010E940E0F12
:101FC000C801DF91CF911F910F91FF90EF90DF90AB
:101FD000CF90BF90AF909F908F907F906F905F90C9
:101FE0004F9008955B01AC1ABD0A4C018C0E9D1EEA
:101FF000A0911A03B0911B03512C412CF12CE12C20
:10200000109731F58091180390911903881599055F
:1020100009F05CC04616570608F058C080911002BF
:1020200090911102009741F48DB79EB74091140230
:1020300050911502841B950BE817F90708F055C05D
:10204000F0931903E0931803F90171836083B8CF0B
:102050008D919C91119712966C90129713967C908B
:102060001397A815B90559F56C0142E0C40ED11CAF
:10207000CA14DB0420F1AC014A195B09DA0112969B
:10208000159780F06282738251834083D9016D93EA
:102090007C93E114F10471F0D7011396FC93EE9355
:1020A00012978ECF22968C0F9D1FF901918380830A
:1020B000F301EFCFF0931B03E0931A0381CF48168F
:1020C000590608F42C017D01D3019ACFCB010E945F
:1020D000720E7C01009749F0AE01B8010E947810A1
:1020E000C8010E940E0F87016BCF10E000E068CF9F
:1020F000FB01DC0102C001900D9241505040D8F725
:102100000895FB01DC018D91019080190110D9F334
:10211000990B0895FB01DC0101900D920020E1F77D
:10212000089511E0CDE9D1E000E006C0802FFE0166
:102130000E94560E2196011DCE39D10780E0080776
:06214000A9F7F894FFCF9F
:10214600581B00000101000000000200A00F000063
:1021560000001C038000000000004503FF02DA03B4
:102166004403A103B9032C03636D6400FFFFFF0062
:102176003D22003D0074302E7478740074312E7444
:1021860078740074322E7478740070342E7069631B
:102196000070322E7069630070332E706963000020
:00000001FF
