:100000000C949E010C94CF010C94CF010C94CF0161
:100010000C94CF010C94CF010C94CF010C94CF0120
:100020000C94CF010C94B0060C94B0060C94B0065E
:100030000C942C070C94CF010C94CF010C94CF019D
:100040000C94CF010C94CF010C94CF010C94CF01F0
:100050000C94CF010C94CF010C94CF010C94660644
:100060000C94CF010C94CF010C94CF010C94CF01D0
:100070000C94CF010C94CF010C94CF010C94CF01C0
:100080000C94CF010C94CF010C94CF010C94CF01B0
:100090000C94CF010C94CF010C94CF010C94CF01A0
:1000A0000C94CF010C94CF010C94CF010C94CF0190
:1000B0000C94CF010C94CF010C94CF010C94CF0180
:1000C0000C94CF010C94CF010C94CF010C94CF0170
:1000D0000C94CF010C94CF010C94CF010C94CF0160
:1000E0000C94CF010C94850C0C94460C0C94430C8E
:1000F0000C9422020C94550C0C94F5010C943402CF
:100100000C948E0C0C943A0C0C94670C0C942E0CE2
:100110000C9401020C947F0C0C94220C0C94B50CE2
:100120000C94610C0C94E5030C94AC0C0C944C0CEA
:100130000C94760C0C941F0C0C94C4030C943D0C82
:100140000C94A30C0C94400C0C94A60C0C942A0256
:100150000C949D0C0C9404020C949A0C0C942F0299
:100160000C94580C0C94F9010C94640C0C947C0CB9
:100170000C9437030C940E020C940A020C94B20CEB
:100180000C940A030C945A0D0C945E0C0C94EF0121
:100190000C94940C0C9450030C944F030C94260272
:1001A0000C94730C0C94490C0C94280C0C941C02A9
:1001B0000C946D0C0C94970C0C94FD010C94AF0CEA
:1001C0000C94A90C0C94CF0C0C94250C0C94790C69
:1001D0000C94370C0C94880C0C94820C0C94340CFA
:1001E0000C94700C0C9430020C948B0C0C94520CEC
:1001F0000C94AC030C94A00C0C942B0C0C94310CB0
:100200000C946A0C0C94910C0C9414020C9418022B
:100210000C944F0C0C945B0C000021002400270070
:100220002A002D0030003300010100000401070105
:100230000A0100002200250028002B002E003100BA
:10024000340002010000050108010B01000020003C
:100250002300260029002C002F003200000100009E
:100260000301060109010505050507050808080839
:10027000020202020A0A080804040404010101013E
:100280000101010103030303030303030407070739
:100290000C0C0C0C0C0C0C0C0202020206060606DE
:1002A000060606060B0B0B0B0B0B0B0B01021020AB
:1002B000200808102040102040800201020108049C
:1002C0000201010204081020408080402010080430
:1002D0000201800402018040201008040201080489
:1002E00002010102040810204080010204081020CD
:1002F000408000000A0B02090C0D0E0807030401E0
:1003000000000000000000000000000000000000ED
:1003100000000000000000000000000000001211BA
:1003200010000000000000000000000000000000BD
:100330000000000000000000CF0C5A0D11241FBE69
:10034000CFEFD1E2DEBFCDBF00E00CBF23E0A2E5DE
:10035000B2E001C01D92AF30B207E1F712E0A0E0B9
:10036000B2E0E2EAF0E200E00BBF02C007900D92BB
:10037000A235B107D9F711E0CDE9D1E000E006C020
:1003800021970109802FFE010E94040ECC39D1076C
:1003900080E00807A9F70E9490070C943F100C9486
:1003A00000008150823108F05AC0E82FF0E0882721
:1003B000E352FE4F8F4F0C94040EFD010102EF013A
:1003C000F501F9012F0204020A020E0214021802BA
:1003D0001C02220226022F022A02300234028091DD
:1003E00080008F77809380000895809180008F7DBA
:1003F000F9CF80918000877FF5CF84B58F7784BD5A
:10040000089584B58F7DFBCF8091B0008F77809366
:10041000B00008958091B0008F7DF9CF8091900059
:100420008F77809390000895809190008F7DF9CF11
:1004300080919000877FF5CF8091A0008F77809387
:10044000A00008958091A0008F7DF9CF8091A00039
:10045000877FF5CF809120018F77809320010895C9
:10046000809120018F7DF9CF80912001877FF5CF8A
:10047000CF93DF93282F30E0F901EE50FD4F8491A8
:10048000F901E455FD4FD491F901EA59FD4FC491AA
:10049000CC23A1F081110E94D101EC2FF0E0EE0FEE
:1004A000FF1FE45BFD4FA591B491EC91ED2381E03A
:1004B00090E009F480E0DF91CF91089580E090E032
:1004C000FACF1F93CF93DF93282F30E0F901EE503E
:1004D000FD4F8491F901E455FD4FD491F901EA599A
:1004E000FD4FC491CC23A9F0162F81110E94D10198
:1004F000EC2FF0E0EE0FFF1FEE5CFD4FA591B491E5
:100500008FB7F894EC91111108C0D095DE23DC93DD
:100510008FBFDF91CF911F910895DE2BF8CFCF933E
:10052000DF9390E0FC01E455FD4F24918A599D4FE3
:10053000FC0184918823C9F090E0880F991FFC0189
:10054000E85EFD4FA591B491FC01EE5CFD4FC591B5
:10055000D49161110DC09FB7F8948C91209582239E
:100560008C938881282328839FBFDF91CF910895A2
:10057000623051F49FB7F8943C91822F8095832389
:100580008C93E8812E2BEFCF8FB7F894EC912E2B24
:100590002C938FBFEACF3FB7F8948091D30290910C
:1005A000D402A091D502B091D60226B5A89B05C071
:1005B0002F3F19F00196A11DB11D3FBFBA2FA92FE2
:1005C000982F8827BC01CD01620F711D811D911DDF
:1005D00042E0660F771F881F991F4A95D1F708954B
:1005E0002FB7F8946091CF027091D0028091D10220
:1005F0009091D2022FBF0895DB0114964D915C912A
:1006000015976D917C91DC01ED91FC910280F38155
:10061000E02D1994AF92BF92CF92DF92EF92FF92AA
:100620000F931F93CF93DF936C017B018B01040F1A
:10063000151FEB015E01AE18BF08C017D10759F0B6
:100640006991D601ED91FC910190F081E02DC601F8
:100650001995892B79F7C501DF91CF911F910F91E2
:10066000FF90EF90DF90CF90BF90AF9008952091D2
:10067000BB023091BC022817390771F49091B9027E
:100680008091BA02981741F0E091B902F0E0E75882
:10069000FD4F808190E008958FEF9FEF08950895BA
:1006A000EF92FF920F931F93CF93DF93DC015C9641
:1006B000ED90FC905D97E114F10479F481E090E015
:1006C00013969C938E93129790E080E0DF91CF91E8
:1006D0001F910F91FF90EF9008955196ED91FC912D
:1006E000529750968C915097982F90950FB75E9691
:1006F0002C915E97122F127021FD6095F894208145
:10070000112319F1282B2083E7012197F1F728E025
:10071000462F50E0308160FF1AC0382B3083E7014C
:100720002197F1F7BA0175956795215089F7112343
:1007300081F08081892380830FBF5C968D919C918D
:100740000197F1F781E090E0C1CF2923DCCF392375
:10075000E5CF9081892BEFCF2091BB023091BC0275
:100760002817390771F48091BA022091B90290E0FC
:10077000805C9F4F821B910960E470E00E94CE0D67
:10078000089590E080E008952091BB023091BC0272
:1007900028173907B9F49091B9028091BA029817D5
:1007A00089F0E091B902F0E0E758FD4F8081209197
:1007B000B90230E02F5F3F4F2F7333272093B902E8
:1007C00090E008958FEF9FEF089590E080E0089506
:1007D000FF920F931F93CF93DF9305E012E0D0E0D9
:1007E000C0E0F801F1908F01CE010E94B80DF8161B
:1007F00021F06F2DCE010E94C00D2196CA30D10587
:1008000081F785E092E0DF91CF911F910F91FF90EA
:100810000895FB0101900020E9F73197AF01461BD5
:10082000570BDC01ED91FC910280F381E02D1994CE
:10083000FC0180819181009711F00C94BC0E089509
:10084000EF92FF920F931F93CF93DF93EC017B0105
:100850008A0188819981009729F02A813B81241798
:10086000350788F4B8016F5F7F4F0E94450F0097EE
:1008700091F0998388831B830A832C813D81232BEC
:1008800011F4FC0110821D830C83B70188819981CA
:100890000E9438100CC088819981009711F00E9445
:1008A000BC0E198218821D821C821B821A82CE0104
:1008B000DF91CF911F910F91FF90EF900895EF92EC
:1008C000FF920F931F93CF93DF93CDB7DEB7A1971E
:1008D0000FB6F894DEBF0FBECDBF8C01CB01BA01BD
:1008E000F8011182108213821282158214822AE08A
:1008F000AE014F5F5F4F7A010E94860DF7010190B4
:100900000020E9F73197AF014E195F09B701C8011F
:100910000E942004A1960FB6F894DEBF0FBECDBF93
:10092000DF91CF911F910F91FF90EF900895CF939A
:10093000DF93EC01FB018617970749F06081718115
:100940006115710541F0448155810E942004CE015A
:10095000DF91CF91089588819981009711F00E94CD
:10096000BC0E198218821D821C821B821A82EFCF54
:100970008F929F92AF92BF92EF92FF920F931F932D
:10098000CF93DF93CDB7DEB7A1970FB6F894DEBF54
:100990000FBECDBF4A015B01BC018FED92E00E940A
:1009A00097048092E5029092E602A092E702B0924C
:1009B000E8026FED72E08091DD029091DE020E940C
:1009C000FC0267E272E08091DD029091DE020E94FB
:1009D0000904E090DD02F090DE022091E502309102
:1009E000E6024091E7025091E80219A28E010F5DE4
:1009F0001F4F8AE0882E912CA12CB12CCA01B9017D
:100A0000A50194010E94E20D605DF80162938F01DF
:100A1000211531054105510589F7309721F0BF01B6
:100A2000C7010E94090469E272E08091DD029091A1
:100A3000DE020E940904A1960FB6F894DEBF0FBE35
:100A4000CDBFDF91CF911F910F91FF90EF90BF909D
:100A5000AF909F908F900895CF93DF93EB01BC01EF
:100A60008FED92E00E949704BE0189EE92E00E9411
:100A700097048091ED029091EE02C091DD02D09139
:100A8000DE02892BC9F06DE272E08091E90290915B
:100A9000EA020E942F10892B79F46FED72E0CE01EB
:100AA0000E94FC0269E272E08091DD029091DE0218
:100AB000DF91CF910C9409046FED72E0CE010E949A
:100AC000FC0261E372E08091DD029091DE020E94FF
:100AD000090469EE72E08091DD029091DE020E94CD
:100AE000FC0262E372E08091DD029091DE020E94DE
:100AF0000904D8CFFC011182108213821282158260
:100B00001482FB0101900020E9F73197AF01461BE9
:100B1000570B0C942004CF93DF93CDB7DEB72C97FF
:100B20000FB6F894DEBF0FBECDBF40915602509174
:100B300057026091580270915902CE0107960E94A7
:100B40005F0464E372E0CE0101960E947A05BE0163
:100B5000695F7F4FCE0101960E942C05CE01019660
:100B60000E941804CE0107960E94180460910002AA
:100B700070910102809102029091030228EE33E00D
:100B800040E050E00E94E20DBA01A901CE010796B3
:100B90000E945F046BE372E0CE0101960E947A0529
:100BA000BE01695F7F4FCE0101960E942C05CE01E8
:100BB00001960E941804CE0107960E9418044091E5
:100BC0000502509106026091070270910802CE0161
:100BD00007960E945F0462E472E0CE0101960E94D3
:100BE0007A05BE01695F7F4FCE0101960E942C05F8
:100BF000CE0101960E941804CE0107960E941804A7
:100C00002C960FB6F894DEBF0FBECDBFDF91CF910B
:100C100008951092C50260E088E00E946102809110
:100C2000560290915702A0915802B0915902019634
:100C3000A11DB11D8093560290935702A0935802B4
:100C4000B09359020C948B05E5E0F2E0808191812C
:100C5000A281B3814091560250915702609158028F
:100C600070915902840F951FA61FB71F4091520221
:100C7000509153026091540270915502841B950B60
:100C8000A60BB70B80839183A283B383809100026C
:100C900090910102A0910202B09103028683978392
:100CA000A087B1870E94E803809156029091570275
:100CB000A0915802B091590280935202909353022E
:100CC000A0935402B09355020C948B051F920F927F
:100CD0000FB60F9211242F933F938F939F93AF934F
:100CE000BF938091CF029091D002A091D102B09198
:100CF000D2023091CE0223E0230F2D3758F5019612
:100D0000A11DB11D2093CE028093CF029093D002FB
:100D1000A093D102B093D2028091D3029091D402D9
:100D2000A091D502B091D6020196A11DB11D80936C
:100D3000D3029093D402A093D502B093D602BF9170
:100D4000AF919F918F913F912F910F900FBE0F9078
:100D50001F90189526E8230F0296A11DB11DD2CF32
:100D60001F920F920FB60F9211240BB60F922F9372
:100D70003F934F935F936F937F938F939F93AF9323
:100D8000BF93EF93FF93E091BB02F091BC023097C9
:100D900049F0A685B7858585968D91FF16C09C91F3
:100DA0008923B1F4FF91EF91BF91AF919F918F9102
:100DB0007F916F915F914F913F912F910F900BBE5B
:100DC0000F900FBE0F901F9018959C91892351F79B
:100DD000A389B4899C918589809589238C93868980
:100DE00097890197F1F7608D718DA685B785558537
:100DF00038E020E0CB010197F1F7822F90E0959544
:100E00008795282F4C91452309F02068315091F7A0
:100E1000868D81FD20958091BA0290E001968F73B6
:100E200099273091B902381799F0A091BA02B0E031
:100E3000A758BD4F2C938093BA02828D938D019752
:100E4000F1F7A389B4898C919589892B8C93AACFCA
:100E5000868D8160868FF1CF1F920F920FB60F9211
:100E600011240BB60F922F933F934F935F936F9381
:100E70007F938F939F93AF93BF93EF93FF930FB69F
:100E8000F894A8958091600088618093600010922A
:100E900060000FBEE5E0F2E080819181A281B38124
:100EA0004091560250915702609158027091590238
:100EB000840F951FA61FB71F4091520250915302F5
:100EC0006091540270915502841B950BA60BB70BD1
:100ED00080839183A283B383809100029091010269
:100EE000A0910202B091030286839783A087B18705
:100EF0000E94E80388E080936000FF91EF91BF912A
:100F0000AF919F918F917F916F915F914F913F91A1
:100F10002F910F900BBE0F900FBE0F901F90189542
:100F2000CF93DF9300D000D0CDB7DEB7789484B5EF
:100F3000826084BD84B5816084BD85B5826085BDD5
:100F400085B5816085BD80916E00816080936E0063
:100F50001092810080918100826080938100809155
:100F60008100816080938100809180008160809306
:100F700080008091B10084608093B1008091B000C6
:100F800081608093B0008091910082608093910095
:100F900080919100816080939100809190008160A8
:100FA000809390008091A10082608093A100809145
:100FB000A10081608093A1008091A0008160809356
:100FC000A000809121018260809321018091210104
:100FD00081608093210180912001816080932001B4
:100FE00080917A00846080937A0080917A00826098
:100FF00080937A0080917A00816080937A0080915A
:101000007A00806880937A001092C100E091DD023E
:10101000F091DE02138E128E118E108E178A168AB0
:1010200085E690E0958F848F848596EF980F9430B5
:1010300048F02EEC280F243028F022EC280F28301E
:1010400008F055C021E230E0378B268B23E630E0F4
:10105000318F208F22E430E0338F228F943050F094
:101060002EEC280F243030F022EC280FB0E0A0E066
:10107000283010F4A8E6B0E02C91943028F032EC3F
:10108000380F383008F4BAC031E0232B943048F0E0
:101090009EEC980F943028F08E53B0E0A0E088309A
:1010A00010F4A8E6B0E02C93248536EF320F3430EC
:1010B00008F4A6C08EEC820F843008F4A1C082EC44
:1010C000820F883008F49FC090E080E0948B838B7F
:1010D000343008F09BC02650330B81E001C0880FEC
:1010E0002A95EAF7858B848D958D0197F1F7828D8E
:1010F000938D892B41F14091BB025091BC02E417C2
:10110000F50709F14115510569F0DA0153962D9162
:101110003C91D9019C91DA0155968C918095892357
:10112000D9018C93868D8E7F868F1092BA02109291
:10113000B902F093BC02E093BB02A389B4898C91FD
:101140009589892B8C930E94CB024B015C0144E66C
:10115000C42ED12CE12CF12C0E94CB026819790904
:101160008A099B09683E734081059105A8F3B1E0A7
:10117000CB1AD108E108F108E8EE8E0EE3E09E1EDE
:10118000A11CB11CC114D104E104F10429F70E948F
:10119000F0026093FE027093FF028093000390932D
:1011A00001038091DD029091DE02DC01ED91FC9162
:1011B0000084F185E02D199518161906E4F50E94B2
:1011C000F0020091FE021091FF0220910003309185
:1011D0000103601B710B820B930B61397140810518
:1011E000910548F58091DD029091DE02DC01ED91E0
:1011F000FC910284F385E02D1995D3CF34E045CFDF
:101200008BE690E063CF8DE690E060CF88E02233FC
:1012100009F468CF84E0233309F464CF82E02433F7
:1012200009F460CF82EC820F883018F42E53330B10
:1012300054CF81E057CF0FB6F894A8958091600005
:10124000886180936000109260000FBE60E082E0D1
:101250000E948F0262E085E30E948F0261E088E0D5
:101260000E948F0261E08DE00E948F0260E08DE0BD
:101270000E9461020E94F0026B017C010E94F00258
:101280006C197D098E099F096630710581059105EC
:10129000A8F360E088E00E946102809160008861AC
:1012A0008093600087E480936000A89535E0E32E8A
:1012B00032E0F32E10E000E0C8010E94B80DF70103
:1012C00081937F010F5F1F4F0A301105A9F78091AD
:1012D0000B0290910C02A0910D02B0910E0281338D
:1012E0009547A105B105D0F088E59BE1A0E0B0E00D
:1012F00080930B0290930C02A0930D02B0930E0208
:1013000010920A021092090210920502109206022F
:1013100010920702109208020E94240680910B028C
:1013200090910C02A0910D02B0910E0280930002E8
:1013300090930102A0930202B093030280910902EC
:1013400090910A028130910509F065C169E472E06B
:10135000CE0101960E947A0541E050E060E070E025
:10136000CE0101960E94B804CE0101960E94180495
:101370000E948B053324339488EE882E83E0982EC8
:10138000A12CB12C98E9492E9AE3592E612C712C8D
:10139000CC24C394D12CA89582E00E9438028C0101
:1013A00022242394892B09F4212C85E30E943802FE
:1013B0007C010E94F0022091CA023091CB02409140
:1013C000CC025091CD02621773078407950740F451
:1013D0001092CA021092CB021092CC021092CD024F
:1013E0000E94F0022091BD023091BE024091BF02E6
:1013F0005091C002621773078407950740F410925A
:10140000BD021092BE021092BF021092C0020E9452
:10141000F0022091CA023091CB024091CC0250914F
:10142000CD02621B730B840B950B6B3F710581051D
:10143000910510F1E114F104F9F48091040288237C
:10144000D9F001151105C1F43092C50261E088E0C0
:101450000E9461020E94F0026093C6027093C7026C
:101460008093C8029093C9026093CA027093CB0222
:101470008093CC029093CD028091C5028823F1F035
:101480000E94F0022091C6023091C7024091C8022A
:101490005091C902621B730B840B950B20910002C3
:1014A0003091010240910202509103022617370742
:1014B0004807590708F0BCC00E9409068091DD0268
:1014C0009091DE02DC01ED91FC910084F185E02D2C
:1014D000199503970CF4CAC08091DD029091DE0249
:1014E000DC01ED91FC910284F385E02D1995809348
:1014F000FD020E94F0026093FE027093FF0280934F
:101500000003909301038091FD02833201F18091E9
:10151000DD029091DE02DC01ED91FC910284F38505
:10152000E02D19958093FD020E94F0020091FE02C9
:101530001091FF022091000330910103601B710B99
:10154000820B930B6536710581059105E0F2809160
:10155000FD02833209F08AC08091DD029091DE02A3
:10156000DC01ED91FC910284F385E02D19958093C7
:1015700004030E94F0026093FE027093FF028093C6
:10158000000390930103309202038091DD02909159
:10159000DE02DC01ED91FC910084F185E02D1995CE
:1015A0002091040328171906B1F0ACF00E94F00254
:1015B0000091FE021091FF0220910003309101037F
:1015C000601B710B820B930B6536710581059105CC
:1015D000E0F21092020380910203882309F446C0CE
:1015E0008091DD029091DE02DC01ED91FC9102849C
:1015F000F385E02D199580930303803501F184353F
:1016000009F4D3C08093DB02809104038093DC0251
:101610000E9400002BC0892B09F0AACE69E472E079
:10162000CE0101960E947A0540E050E0BA0198CEC2
:10163000012B09F041CFEF2809F03ECF3FCF809139
:10164000D7029091D8029093DA028093D9028091C8
:10165000DD029091DE02DC01ED91FC910284F385C4
:10166000E02D19959093D8028093D7028091C402FF
:101670008823C1F08091000290910102A0910202A2
:10168000B0910302885E9340A109B10909F470C1C9
:101690008093000290930102A0930202B093030290
:1016A0000E9424068091C3028823E9F08091000201
:1016B00090910102A0910202B091030288519C4FC7
:1016C000AF4FBF4F8939EAE39E07A105B10508F086
:1016D00058C18093000290930102A0930202B0933C
:1016E00003020E9424068091C2028823E1F0109236
:1016F00005021092060210920702109208028091D1
:10170000000290910102A0910202B0910302809325
:101710000B0290930C02A0930D02B0930E020E9454
:10172000E8030E948B058091C102882369F08091B3
:10173000090290910A02019709F02CC110920A0245
:10174000109209020E9424060E94F0020091BD023C
:101750001091BE022091BF023091C002601B710B3C
:10176000820B930B60387E4E8643910560F00E9499
:1017700024060E94F0026093BD027093BE02809323
:10178000BF029093C0021092C4021092C302109242
:10179000C2021092C1022092040280E090E0892BE4
:1017A00009F4F9CD0E940000F6CD8091DD02909100
:1017B000DE02DC01ED91FC910284F385E02D1995A8
:1017C000FC01FF27E333F10508F050CF8827E451EF
:1017D000F44F8F4F0C94040E1F0C220C250C280C78
:1017E0002B0C2E0C310C340C370C3A0C3D0C400CED
:1017F000430C460C490C4C0C4F0C520C550C580C1D
:101800005B0C5E0C610C640C670C6A0C6D0C700C4C
:10181000730C760C790C7C0C7F0C820C850C880C7C
:101820008B0C8E0C910C940C970C9A0C9D0CA00CAC
:10183000A30CA60CA90CAC0CAF0CB20CB50C3092DE
:10184000C40214CF3092C30211CF3092C2020ECF25
:101850003092C1020BCF0E94000008CF0E9400000E
:1018600005CF0E94000002CF0E940000FFCE0E9420
:101870000000FCCE0E940000F9CE0E940000F6CECF
:101880000E940000F3CE0E940000F0CE0E940000F3
:10189000EDCE0E940000EACE0E940000E7CE0E943A
:1018A0000000E4CE0E940000E1CE0E940000DECEE7
:1018B0000E940000DBCE0E940000D8CE0E940000F3
:1018C000D5CE0E940000D2CE0E940000CFCE0E9452
:1018D0000000CCCE0E940000C9CE0E940000C6CEFF
:1018E0000E940000C3CE0E940000C0CE0E940000F3
:1018F000BDCE0E940000BACE0E940000B7CE0E946A
:101900000000B4CE0E940000B1CE0E940000AECE16
:101910000E940000ABCE0E940000A8CE0E940000F2
:10192000A5CE0E940000A2CE0E9400009FCE0E9481
:1019300000009CCE0E94000099CE0E94000096CE2E
:101940000E94000093CE0E94000090CE0E940000F2
:101950008DCE0E9400008ACE0E94000087CE0E9499
:10196000000084CE0E94000081CE0E9400007ECE46
:101970008092000290920102A0920202B0920302B1
:101980008FCE409200025092010260920202709249
:101990000302A7CED0920A02C0920902D3CE1092BF
:1019A0005D0210925C0288EE93E0A0E0B0E08093CC
:1019B0005E0290935F02A0936002B093610289E19E
:1019C00092E090935B0280935A02109271021092FF
:1019D00070021092730210927202109275021092AD
:1019E00074021092770210927602609178026E7FF4
:1019F0006D7F609378026695617081E068278CE066
:101A00000E94610261E08CE00E948F02E8EBF2E04C
:101A1000E491E0936A02E2E7F2E0E491F0E0EE0F95
:101A2000FF1FEE5CFD4F8591949190936C02809323
:101A30006B0260E08BE00E948F028091780281FD52
:101A400004C061E08BE00E9461028BE0809366023B
:101A5000E7EBF2E0E491E0936702E1E7F2E0E49182
:101A6000F0E0EE0FFF1FE45BFD4F859194919093A2
:101A700069028093680263E372E08FED92E00E9456
:101A80007A0563E372E089EE92E00E947A0563E3EF
:101A900072E08FEE92E00E947A0563E372E085E0E7
:101AA00093E00E947A058AE592E09093DE028093AB
:101AB000DD02089585E093E00E9418048FEE92E025
:101AC0000E94180489EE92E00E9418048FED92E0C3
:101AD0000E94180489E192E090935B0280935A027D
:101AE0008091BB029091BC028A55924071F4E091C2
:101AF0006D02F0916E02908180916F028095892332
:101B000080831092BC021092BB020895BB27FA0199
:101B1000A62F6217710581059105330B30FB66F026
:101B2000AA27660F771F881F991FAA1FA21710F0F8
:101B3000A21B63953850A9F7A05DAA3308F0A95DF0
:101B4000A19336F7B111B1931082CA010C94A80D7C
:101B5000DC01FC01672F71917723E1F7329704C014
:101B60007C916D9370836291AE17BF07C8F308959F
:101B7000F999FECF92BD81BDF89A992780B5089555
:101B8000262FF999FECF1FBA92BD81BD20BD0FB699
:101B9000F894FA9AF99A0FBE0196089597FB072ECA
:101BA00016F4009407D077FD09D00E940C0E07FCB4
:101BB00005D03EF4909581959F4F0895709561955D
:101BC0007F4F0895A1E21A2EAA1BBB1BFD010DC079
:101BD000AA1FBB1FEE1FFF1FA217B307E407F507DD
:101BE00020F0A21BB30BE40BF50B661F771F881FB9
:101BF000991F1A9469F760957095809590959B014F
:101C0000AC01BD01CF010895EE0FFF1F881F8BBFF0
:101C10000790F691E02D1994AA1BBB1B51E107C058
:101C2000AA1FBB1FA617B70710F0A61BB70B881F6C
:101C3000991F5A95A9F780959095BC01CD010895FB
:101C40000F931F93CF93DF938230910510F482E0BE
:101C500090E0E0910D03F0910E0330E020E0B0E061
:101C6000A0E0309799F42115310509F44AC0281BEA
:101C7000390B24303105D8F58A819B8161157105B6
:101C800089F1FB0193838283FE0111C04081518160
:101C90000281138148175907E0F04817590799F452
:101CA000109761F012960C93129713961C9332962C
:101CB000CF01DF91CF911F910F91089500930D03F4
:101CC00010930E03F4CF2115310551F0421753073D
:101CD00038F0A901DB019A01BD01DF01F801C1CF94
:101CE000EF01F9CF90930E0380930D03CDCFFE014A
:101CF000E20FF31F81939193225031093983288396
:101D0000D7CF20910B0330910C03232B41F420916A
:101D100011023091120230930C0320930B03209197
:101D20000F02309110022115310541F42DB73EB755
:101D30004091130250911402241B350BE0910B03C8
:101D4000F0910C03E217F307A0F42E1B3F0B2817AA
:101D5000390778F0AC014E5F5F4F2417350748F024
:101D60004E0F5F1F50930C0340930B03819391938D
:101D70009FCFF0E0E0E09CCFCF93DF930097E9F0B6
:101D8000FC01329713821282A0910D03B0910E03D1
:101D9000ED0130E020E01097A1F420813181820F25
:101DA000931F20910B0330910C032817390709F07A
:101DB00061C0F0930C03E0930B03DF91CF91089582
:101DC000EA01CE17DF07E8F54A815B819E014115E4
:101DD0005105B1F7E901FB83EA8349915991C40F99
:101DE000D51FEC17FD0761F4808191810296840F65
:101DF000951FE90199838883828193819B838A83DC
:101E0000F0E0E0E012968D919C9113970097B9F560
:101E10002D913C911197CD010296820F931F209135
:101E20000B0330910C032817390739F6309751F519
:101E300010920E0310920D03B0930C03A0930B03AA
:101E4000BCCFD383C28340815181840F951FC817B3
:101E5000D90761F44E5F5F4F88819981480F591F00
:101E6000518340838A819B8193838283211531052D
:101E700009F0B0CFF0930E03E0930D039ECFFD0168
:101E8000DC01C0CF13821282D7CF4F925F926F9244
:101E90007F928F929F92AF92BF92CF92DF92EF92FA
:101EA000FF920F931F93CF93DF938C01009799F4C8
:101EB000CB01DF91CF911F910F91FF90EF90DF90B9
:101EC000CF90BF90AF909F908F907F906F905F90DA
:101ED0004F900C94200EFC01E60FF71F9C0122503E
:101EE0003109E217F30708F4AEC0D901CD91DC91B6
:101EF0001197C617D70720F1C530D10578F0CE016C
:101F000004978617970750F0C61BD70B2297C193EB
:101F1000D1936D937C93CF010E94BC0EC801DF91D9
:101F2000CF911F910F91FF90EF90DF90CF90BF90D6
:101F3000AF909F908F907F906F905F904F9008959B
:101F40005B01AC1ABD0A4C018C0E9D1EA0910D03C5
:101F5000B0910E03512C412CF12CE12C109731F54E
:101F600080910B0390910C038815990509F05CC0D2
:101F70004616570608F058C080910F029091100243
:101F8000009741F48DB79EB740911302509114020F
:101F9000841B950BE817F90708F055C0F0930C0364
:101FA000E0930B03F90171836083B8CF8D919C910D
:101FB000119712966C90129713967C901397A81510
:101FC000B90559F56C0142E0C40ED11CCA14DB04FA
:101FD00020F1AC014A195B09DA011296159780F0DD
:101FE0006282738251834083D9016D937C93E114A3
:101FF000F10471F0D7011396FC93EE9312978ECFF4
:1020000022968C0F9D1FF90191838083F301EFCFFE
:10201000F0930E03E0930D0381CF4816590608F4A0
:102020002C017D01D3019ACFCB010E94200E7C01AF
:10203000009749F0AE01B8010E942610C8010E9425
:10204000BC0E87016BCF10E000E068CFFB01DC0124
:1020500002C001900D9241505040D8F70895FB0105
:10206000DC018D91019080190110D9F3990B08952D
:10207000FB01DC0101900D920020E1F7089511E0D1
:10208000CDE9D1E000E006C0802FFE010E94040EE1
:102090002196011DCE39D10780E00807A9F7F894F1
:0220A000FFCF70
:1020A200581B000001000000000100A00F0000000A
:1020B200000F0380000000000050030A03E5034FF5
:1020C20003AC03C40337033D00FFFFFF00636D64ED
:1020D200003D220074302E7478740074312E7478AE
:1020E200740074322E747874006274302E76616CCF
:0220F2000000EC
:00000001FF
